:020000040000FA
:030000000200E318
:030013000206C61C
:03001B0002078950
:030033000205D2F1
:03003B0002072297
:03004B000206A00A
:0300630002049FF5
:03006B0002086721
:030073000207E59C
:03007B0002084C2C
:1000830002066200000080FB120113B900030200A4
:10009300CDE4900F00784079038002F0A3D8FCD917
:1000A300FA90113FAA82AB839001167839790180C7
:1000B30015E493A3AC82AD838A828B83F0A3AA82D7
:1000C300AB838C828D83D8E9D9E775821675830A51
:1000D30074001200F575828675830074001200F5B2
:1000E30075D0007581BF75100075110F759F0002E3
:1000F300008BC09FF59FE473D09F22D083D082C032
:100103009FE493C0E0740193C0E0740293F59F22CF
:100113007901220000000000C2010001000000FF7D
:10012300550000030A07BB00220000227EC7C0E27D
:1001330000001D330E02092400BAC0E20041062765
:1001430011003823002A91891300001200FECD0DFF
:10015300001200FEDE0D001200FEFA0D001200FE7A
:10016300970D001200FE140E001200FE340D001253
:1001730000FE440D001200FE700D001200FEED0A99
:10018300001200FEFA0B001200FE5F0C001200FECC
:100193008208001200FED008001200FE7B09001244
:1001A30000FEF309001200FEB60A00E49366701322
:1001B3000874019366700C087402936670050874E2
:1001C30003936622C3E09608A3E09608A3E096088B
:1001D300A3E09622C3E493960874019396087402ED
:1001E3009396087403939622E026F008A3E036F072
:1001F30008A3E036F008A3E036F022E0F608A3E017
:10020300F608A3E0F608A3E0F622E0FAA3E0FBA3D6
:10021300E0FCA3E0FD22EAF0A3EBF0A3ECF0A3EDF6
:10022300F022700422600D18C6C333C608C633C655
:10023300D5E0F41822251010AF08F510400215116F
:100243008008F51040021511D2AF222510F582E483
:100253003511F58322E4732510C582C0E0E511341E
:10026300FFC583C0E0E510C3958224F810AF08856D
:1002730083118582108008858311858210D2AFCEC9
:10028300F0A3E520F0A37808E608F0A3DEFAEFF088
:10029300A3E58124FAF8E608F0A3E608F0A3E6084C
:1002A300F0A30808E608F0A3E608F0A3158115817A
:1002B300D0E0FED0E0F8158115811581E8C0E0EEAD
:1002C300C0E022851183851082E0A3FEE0A3F52020
:1002D3007808E0A3F608DFFAE0A3FFE0A3C0E0E0BC
:1002E300A3C0E0E0A3C0E0E0A3C0E0E0A3C0E0104F
:1002F300AF0885821085831180088582108583115C
:10030300D2AFD083D0820200FBC0D02510C582C0FB
:10031300E0E51134FFC583C0E0E510C3958224F303
:1003230010AF08858311858210800885831185822B
:1003330010D2AFC8F0A3E9F0A3EAF0A3EBF0A379DE
:1003430008E709F0A3D8FAECF0A3EDF0A3EEF0A3CD
:10035300EFF0A3D0E0F0A3D0E0F0A3D0E0F0A3E56A
:1003630020F0A3E5F0F0A322851183851082E0C07D
:10037300E0A3E0F9A3E0FAA3E0FBA37808E0F60822
:10038300A3DFFAE0FCA3E0FDA3E0FEA3E0FFA3E00C
:10039300C0E0A3E0C0E0A3E0F5D0A3E0F520A3E034
:1003A300A3F5F010AF08858311858210800885833B
:1003B30011858210D2AFD082D083D0E0F8D0E03262
:1003C300D083D082ECC0E0EDC0E0EEC0E0EFC0E04F
:1003D300E493A3FCE493A3FDE493A3FEE493A3FFBC
:1003E300EF4E4D4C601512043FEC24FFFCED34FF3F
:1003F300FDEE34FFFEEF34FFFF80E5E493A3FCE45E
:1004030093A3FDE493A3FEE493A3FFEF4E4D4C604F
:100413001512047CEC24FFFCED34FFFDEE34FFFEEB
:10042300EF34FFFF80E5D0E0FFD0E0FED0E0FDD069
:10043300E0FCE493A3C0E0E493C0E022C0E0C0F09A
:1004430088F01201D7A8F040071201AEA8F0701A85
:10045300A3A3A3A31201D7A8F0A3A3A3A34013D0DC
:10046300F0D0E0D0E0D0E0020429A3A3A3A3A3A388
:10047300A3A3A3A3D0F0D0E022C0E0C0F088F01281
:1004830001AEA8F0A3A3A3A3700BD0F0D0E0D0E0FB
:10049300D0E0020429A3A3D0F0D0E022C0E074F29C
:1004A30012030CC2DBC2C41201A87F0102036BC09A
:1004B300E074F112030CC2C5E589607E7E0080748E
:1004C300750801750900EE7808120225E508AF08E2
:1004D300E5895F605EEEF87900E875F002A4C8AACA
:1004E300F075F000A42AFA75F002E9A42AF9740160
:1004F30028F582740F39F583E0F8A3E0F9E8496041
:100503002EEEF87900E875F002A4C8AAF075F000A1
:10051300A42AFA75F002E9A42AF9740128F5827471
:100523000F39F583E0F8A3E0F5838882120258EFD0
:10053300F452890EEEC3940840867F0202036BC017
:10054300E074F112030CC2EBE58A607E7E008074D6
:10055300750801750900EE7808120225E508AF0851
:10056300E58A5F605EEEF87900E875F002A4C8AA38
:10057300F075F000A42AFA75F002E9A42AF97411BF
:1005830028F582740F39F583E0F8A3E0F9E84960B0
:100593002EEEF87900E875F002A4C8AAF075F00011
:1005A300A42AFA75F002E9A42AF9741128F58274D1
:1005B3000F39F583E0F8A3E0F5838882120258EF40
:1005C300F4528A0EEEC3940840867F0202036BC086
:1005D300E074F112030CC2E8E58B607E7E00807448
:1005E300750801750900EE7808120225E508AF08C1
:1005F300E58B5F605EEEF87900E875F002A4C8AAA7
:10060300F075F000A42AFA75F002E9A42AF974211E
:1006130028F582740F39F583E0F8A3E0F9E849601F
:100623002EEEF87900E875F002A4C8AAF075F00080
:10063300A42AFA75F002E9A42AF9742128F5827430
:100643000F39F583E0F8A3E0F5838882120258EFAF
:10065300F4528B0EEEC3940540867F0202036BC0F7
:10066300E074F212030CA2AFE433FEC2AFE5E9A2D9
:10067300E65020900F2BE0F8A3E0F9E849600E90D4
:100683000F2BE0F8A3E0F5838882120258759B00D4
:1006930053E9BFEEA2E092AF7F0102036BC0E074A7
:1006A300F212030C900F2DE0F8A3E0F9E849600E75
:1006B300900F2DE0F8A3E0F58388821202587F01A2
:1006C30002036BC0E0C0D0E8C0E0E9C0E0C082C074
:1006D30083E5C1C0E0900FB0E0F87900742F28F5EE
:1006E30082740F39F583D0E0F0900FAFE0F8900FEC
:1006F300B0E0687006E595900FB1F0900FB0E0247C
:1007030001900FB0F0C394804006900FB07400F0D6
:10071300D083D082D0E0F9D0E0F8D0D0D0E032C09E
:10072300E0C0D0E8C0E0C008C009C082C083901018
:1007330032E0F8901033E068700B539AFB9010345A
:100743007401F08031C2E9901032E0F5087401259C
:1007530008901032F075090074B22508F582740F01
:100763003509F583E0F5C1901032E0C3948040066B
:100773009010327400F0D083D082D009D008D0E03A
:10078300F8D0D0D0E032C0E0C0D0E8C0E0E9C0E0AB
:10079300C082C083E5F9C0E09010B6E0F879007438
:1007A3003528F582741039F583D0E0F09010B5E068
:1007B300F89010B6E0687006E5959010B7F09010C9
:1007C300B6E024019010B6F0C3948040069010B6B2
:1007D3007400F0D083D082D0E0F9D0E0F8D0D0D04C
:1007E300E032C0E0C0D0E8C0E0C008C009C082C0A9
:1007F30083901138E0F8901139E068700B539AF741
:1008030090113A7401F08031C2EA901138E0F50892
:1008130074012508901138F075090074B82508F59E
:100823008274103509F583E0F5F9901138E0C3942B
:100833008040069011387400F0D083D082D009D064
:1008430008D0E0F8D0D0D0E032C0E074F212030C4C
:10085300538AFBC2EB1201A2D2A0538AFBC2EB7FE5
:100863000102036BC0E074F212030C5389FDC2C58D
:100873001201A2D2975389FDC2C57F0102036B43C4
:100883008D04438C02439A10538AFBC2EB43AB02A1
:10089300438C01D2BD5389FBC2C553F5FEC2A043AD
:1008A300FF0153F47FC29743FE8053F4FEC290438B
:1008B300FE0153F4FDC29143FE0253F4F7C2934386
:1008C300FE0853F4EFC29443FE100200FB74F712C8
:1008D300025AEAFEEBFF7C0C7D00EEFAEFFB1201FD
:1008E3008A780079008008E82401F8E93400F9C324
:1008F300E8940CE99400A2D265D0335018EE28F5A1
:1009030082EF39F583E0FA745B28F582741139F5C7
:1009130083E06A6006780079008018740B687003BE
:1009230074006970C27A017B008048E82401F8E909
:100933003400F9C3E8940CE99400A2D265D0335093
:100943002EEE28F582EF39F583E0FA746728F582F5
:10095300741139F583E06A60067AFF7BFF801474B3
:100963000B68700374006970C27A027B0080047A9A
:10097300FF7BFF7F010202C674F012025A8A0C8BBE
:100983000D8909750800750E007E007F008008EE52
:100993002401FEEF3400FF85090A750B00C3EE95B1
:1009A3000AEF950BA2D265D033503675F010EEA442
:1009B30024082508F50885080A750B00E50C250AA7
:1009C300FAE50D350BFB120196EAF50E7401650E7F
:1009D30060067402650E70B7750F00AA0EAB0F8028
:1009E3000A850E0A750B00AA0AAB0B7F080202C622
:1009F300C082C083C290C291C293C294C2A0C29764
:100A030090113F12020D90113B120219D083D08234
:100A13000200FB748012023812015A901143120231
:100A23000D12017E12014E120190120154780079C9
:100A3300007400800C1201A2D2977A027B0012018B
:100A4300787C107D007A4B7B1112018A7ADC7B055E
:100A53001201787C807D00851082851183AA82AB88
:100A630083120184EAC3941340D075F01274061202
:100A7300024EE084F9740712024EAA82AB8312017C
:100A83009C8A088B09A808A909740168700374007B
:100A930069700B1201A2D290D291D2A0809C7402F1
:100AA300687003740069708D1201A2D293D294D23C
:100AB300A0808774F412025A90114778081201FE3D
:100AC30090113B78081201EB90113BC082C08390D8
:100AD300117378081201FED083D08278081201C7FF
:100AE30040031201A27F040202C674F412025A8A5E
:100AF300088B098C0A8D0B53F1FE43F30C53F2F36D
:100B030075868075C48078081203C3000000000C4A
:100B1300000000B0040000600B60090000680BC017
:100B2300120000700B80250000780B403800008015
:100B33000B004B0000880B80700000900B009600A8
:100B430000980B00E10000A00B002C0100A80B0093
:100B5300C20100B00B00840300B80BC00B75C23B8D
:100B630075C505805E75C23B75C506805675C23B6B
:100B730075C507804E75C23B75C508804675C2D8DA
:100B830075C508803E75C23B75C509803675C2D8E8
:100B930075C509802E75C23B75C50A802675C2D8F6
:100BA30075C50A801E75C23B75C50B801675C2D804
:100BB30075C50B800E75C2D875C50C800675C23B12
:100BC30075C50A75C402438640D2AA75C100900F49
:100BD300AF7400F0900FB07400F09010327400F016
:100BE3009010337400F0900FB17400F090103474CF
:100BF30000F07F040202C674F712025A78007900EB
:100C0300803E900FAFE0FE7F00742F2EF582740FAD
:100C13003FF583E08A828B83F0900FAFE02401F0ED
:100C23008A828B83A3AA82AB83900FAFE0C39480A5
:100C33004006900FAF7400F0E82401F8E93400F99E
:100C4300900FAFE0FE900FB0E06E6007C3E89CE941
:100C53009D40AFE8FAE9FB7F010202C674F7120276
:100C63005A901032E0F8901033E0C398501F901060
:100C730032E0F87900901033E0FE7F00E8C39EF87D
:100C8300E99FF9E824FFF8E934FFF980379010333E
:100C9300E0F87900C3E498F8E499F9901032E0FEA3
:100CA3007F00E82EF8E93FF9E8247FF8E93400F9FA
:100CB300C3E89CE99D5004D2F08002C2F0A2F0E4A4
:100CC30033F87900E84960067A007B00805E78009B
:100CD30079008012901033E02401F0439A04E82451
:100CE30001F8E93400F9C3E89CE99D503B8A828B03
:100CF30083E0C0E0901033E0FE7F0074B22EF582F3
:100D0300740F3FF583D0E0F08A828B83A3AA82AB72
:100D1300839010347400F0901033E0C3947F40B498
:100D23009010337400F080B3E8FAE9FB7F0102020C
:100D3300C6C082C0837900120160D083D0820200D2
:100D4300FBEBC313FBEA13FAEAF8EBF9E824FFFA27
:100D5300E934FFFBE84960120000000000000000D6
:100D6300000000000000000080DE0200FB74F712A8
:100D7300025AEAFEEBFFEEF8EFF9E824FFFEE9344E
:100D8300FFFFE84960097AE87B0312017280E77F7D
:100D9300010202C6E5C65480F853BEFBE59DA2E5F9
:100DA30050FAE59DA2E240F40074016970077449AA
:100DB30048F5C68005E9700288C6E5C6F8E59EFADF
:100DC300E86A70F943BE040200FB43EBE053EBEF28
:100DD30053EBF743EB04C2BC0200FBC082C0834366
:100DE300EB0853EBFC43EB10D2BC900F007400F004
:100DF300D083D0820200FBC082C08312016C9011A9
:100E03004312020D12017E120166D083D0820200CA
:060E1300FBD2AF0200FB60
:04000005000000E314
:00000001FF
