:020000040800F2
:10000000400C002009010008112D00081301000810
:100010000F2D0008310A00080D5F000800000000E5
:100020000000000000000000000000001B010008AC
:10003000330A0008000000001F01000849520008B0
:100040002301000823010008230100082301000800
:1000500023010008230100084D0A0008970A000840
:10006000A70A0008B70A0008C70A00082301000809
:1000700023010008230100082301000823010008D0
:1000800023010008230100082301000823010008C0
:10009000230100082301000823010008D70A0008F3
:1000A00000000000230100082301000823010008CC
:1000B0000D540008195400082554000823010008B5
:1000C0002301000823010008230100082301000880
:1000D00023010008A15A0008230100082301000899
:1000E0005D0A0008FD310008230100082301000813
:1000F00023010008DFF80CD000F04AFB004800475D
:10010000AD620008400C00200648804706480047C2
:10011000FEE7FEE7FEE7FEE7FEE7FEE7FEE7FEE7B7
:10012000FEE7FEE7BD530008F500000840EA0103C2
:100130009B0703D009E008C9121F08C0042AFAD29D
:1001400003E011F8013B00F8013B521EF9D2704761
:10015000D2B201E000F8012B491EFBD27047002209
:10016000F6E710B513460A4604461946FFF7F0FFB6
:10017000204610BD2DE9FE4F804681EA0300C00FE6
:100180000C46009021F0004123F00045B8EB02003E
:10019000A94105D24046214690461C460B460246E0
:1001A00023F00040104347D0270DC7F30A00C3F3E4
:1001B0000A510290401A019040286BDAC3F31300F1
:1001C00040F4801B0098924620B10023D2EB030A32
:1001D00063EB0B0B01985946C0F14002504600F00A
:1001E00005FA06460D4650465946019A00F01DFA9A
:1001F00010EB08006141002487EA115284EAE7739A
:100200001A4340D0009A62B3019A012A4FEA07527A
:1002100015DC001B61EB02014FF0004202EA0752BD
:10022000CDE90042001C41F5801132462B4600F01A
:100230001DFA03B0BDE8F08F40462146F9E7001BE8
:1002400061EB0201001C41F5801300185B4120188E
:10025000A2F5001747EB030140EAD570B6196D41CE
:1002600011E06D084FEA360645EAC0754FEA0752BD
:10027000001B61EB0201001C41F5801149084FEAA7
:1002800030000019514132462B4603B0BDE8F04F13
:1002900000F0DDB90098012240000023D0EB0202FB
:1002A00063EBE073009821464FEAE074B8EB00007E
:1002B00061EB0401E9E783F000435BE781F0004173
:1002C00058E72DE9FE4F81EA030404F0004421F0D1
:1002D000004100944FF0000B23F0004350EA01046A
:1002E0005ED052EA03045BD0C3F30A54C1F30A554B
:1002F0002C44A4F2F3340194A0FB0254C1F3130183
:1003000041F48011C3F3130343F4801301FB02444F
:1003100000FB034E840A970A44EA815447EA835754
:10032000A4FB076802958D0A05FB07854FEA932C0D
:1003300004FB0C542705029D4FEA065847EA16377E
:10034000B5EB08056EEB070C870E920E47EA811796
:1003500042EA8312A7FB0201B6EB0B0164EB000437
:100360002B0D43EA0C335E1844EB1C50DA46514621
:10037000E7FB0201C5F313044FEA0B3343EA1453BE
:100380004FEA0432019C43EA0603A4F10C040294F0
:10039000009CCDE900B400F069F903B0BDE8F08F2E
:1003A00000200146F9E72DE9F04D81EA030404F04D
:1003B000004B21F0004514464FF0000A23F00041A5
:1003C00050EA050220D054EA01021DD0C5F30A57B5
:1003D0000246C5F31303C1F31300C1F30A5640F4F8
:1003E000801543F48013A7EB0608101BD64608F2CD
:1003F000FD3873EB050002D308F1010801E0921803
:100400005B41B8F1000F03DA00200146BDE8F08D32
:1004100000204FF48011064684460EE0171B73EB54
:10042000050705D3121B63EB050306434CEA010CD9
:1004300049084FEA300092185B4150EA0107EDD1BC
:1004400052EA030012D082EA040083EA050108435D
:1004500005D0101BAB4106D20122002306E000228A
:100460004FF0004302E06FF0010253101AEB060058
:100470004CEB085110EB0A0041EB0B01BDE8F04DCD
:1004800000F0E5B870B521F0004303430CD0C1F390
:100490000A550024D5EB040564EB0403D617AD1A06
:1004A000B34102DB0020014670BD201841EB025130
:1004B00070BD0EB5C10F80EAE0700844CA07002184
:1004C00040F233438DE80E000A460B4600F0CEF8AA
:1004D00003B000BD0EB540F2334102910021CDE9D9
:1004E00000110A460B4600F0C1F803B000BD70B51C
:1004F000C1F30A5201F000450024C1F3130140F298
:10050000FF3341F480119A4201DA002070BD40F2BD
:1005100033439A42A2F2334203DC524200F075F8B0
:1005200000E090402C43F1D0404270BDC1F30A522C
:1005300010B5C1F3130140F2FF3341F480119A4228
:1005400001DA002010BD40F233439A42A2F2334256
:1005500003DC524200F059F810BD904010BD00007D
:1005600030B5041E71F1000404DB4FF0004440423A
:1005700064EB0101141E73F1000405DB1C464FF00F
:100580000043524263EB04038B4208BF824230BDFA
:1005900030B5041E71F1000404DB4FF0004440420A
:1005A00064EB0101141E73F1000405DB1C464FF0DF
:1005B0000043524263EB0403994208BF904230BDAE
:1005C00030B50B46014600202022012409E021FA23
:1005D00002F59D4205D303FA02F5491B04FA02F520
:1005E0002844151EA2F10102F1DC30BD202A04DBF3
:1005F000203A00FA02F1002070479140C2F1200336
:1006000020FA03F3194390407047202A04DB203A74
:1006100021FA02F00021704721FA02F3D040C2F122
:1006200020029140084319467047202A06DBCB1769
:10063000203A41FA02F043EAE07306E041FA02F39D
:10064000D040C2F12002914008431946704710B5CE
:10065000141E73F1000408DA401C41F100019218E5
:100660005B411A4301D120F0010010BD2DE9F04D8E
:1006700092469B4611B1B1FA81F202E0B0FA80F2E3
:1006800020329046FFF7B2FF04460F4640EA0A00C8
:1006900041EA0B0153465A46084313D0114653EA28
:1006A000010019D0C8F140025046FFF7AEFF0546E1
:1006B0000E46504659464246FFF798FF084305D07C
:1006C000012004E020463946BDE8F08D00200543B6
:1006D00046EAE0762C4337430A986305E40AA0EB28
:1006E00008000022FD0A44EA47540A3002D50020DF
:1006F0000146E9E7010510196941DDE908450019DE
:100700006941BDE8F04DA2E72DE9F041054621F031
:1007100000400C46284309D0C4F30A5040F233414C
:10072000884205DD28462146BDE8F0812846FBE7E2
:1007300040F2FE31884210DC0CDB4FEA043040EA24
:10074000155050EA053105D0104804F0004101432E
:100750000020E9E700200146E6E7A0F233404642E8
:10076000C6F1400228462146FFF740FF074688466B
:10077000284621463246FFF748FF43463A46FFF7F0
:1007800066FF3246BDE8F041FFF730BF0000F03FA2
:10079000064C074D06E0E06840F0010394E80700CE
:1007A00098471034AC42F6D3FFF7A8FC547A0008FF
:1007B000747A000810B50021044800F02FF80348AF
:1007C0000221BDE810400C3000F028B8B000002035
:1007D00070B5044600680168C94349061CD48168A5
:1007E00021F00101816000F023FD05460FE000BF0C
:1007F00000F01EFD401B022809D9E06C40F01000FB
:10080000E064206D40F001002065012070BD20688B
:100810000068C0434006EBD5002070BD064A10B505
:100820001378002B07D10123137000F01DF8BDE8E9
:10083000104000F003B810BD6400002009480021FA
:100840004FF020628160C1604162C162C0E90D2148
:100850004FF480624261C163012281618262C161A1
:1008600000F004BBE40100207CB50C460E490546AF
:100870000C4808600D49086840F40070086008687A
:1008800000F400700090084800F06EFA601C08D078
:10089000002100910B46019103222146284600F0D9
:1008A00047F97CBD00240140E401002020380240CB
:1008B00010B5040001D002F06DFF0148C47010BDF6
:1008C0001C00002072B602484178491C41707047F4
:1008D0001600002004494878401E10F0FF004870C0
:1008E00000D162B6704700001600002030B51B4DE5
:1008F00085B02878A0B104F0FDFC00BF4FF0FF30B8
:100900000090052306220721154804F015FC03F08A
:1009100013FA2878002801D10120287005B030BDD5
:1009200000F0C4FC04F098FC02F0ECFE00240094FB
:1009300001230322122102A8019400F0F9F8009487
:1009400000230322082102A8019400F0F1F800F02E
:100950006DFB00F05BFB00F061FBCFE716000020B1
:10096000080700207CB500240094234601220321BF
:100970002B48019400F0DCF8294800940023012260
:1009800018210C30019400F0D3F82548009400237E
:10099000012212211830019400F0CAF801252048E4
:1009A000CDE9005400231A462D21243000F0C0F870
:1009B0001B48CDE9005400231A461121303000F0C5
:1009C000B7F81748CDE9005400231A4615213C30EA
:1009D00000F0AEF81248134B00220221243000F040
:1009E000BFF90F48104B00220221303000F0B8F957
:1009F0000B480E4B002202213C3000F0B1F90121DE
:100A0000074800F0AFF9064801210C3000F0AAF9C0
:100A1000BDE87C4002480121243000F0A3B9000069
:100A200038020020BD2C0008E52C00080D2D000820
:100A3000FEE77047002104E000BF00BF00BF00BF19
:100A4000491C8142F8D3704700F0F8BA10B502F0A3
:100A5000A1FEBDE81040012000F00EBB10B502F071
:100A600099FE4FF4806000F007FB4FF4006000F047
:100A700003FB4FF4805000F0FFFA4FF4005000F0F9
:100A8000FBFA4FF4804000F0F7FABDE810404FF455
:100A9000004000F0F1BA10B502F07CFEBDE8104055
:100AA000022000F0E9BA10B502F074FEBDE8104073
:100AB000042000F0E1BA10B502F06CFEBDE8104071
:100AC000082000F0D9BA10B502F064FEBDE810406D
:100AD000102000F0D1BA10B502F05CFE202000F02A
:100AE000CBFA402000F0C8FA802000F0C5FA4FF49D
:100AF000807000F0C1FABDE810404FF4007000F0C3
:100B0000BBBA0000094A002152F83130834208D8AC
:100B100002EBC1039B68834203D902EBC100007959
:100B20007047491CC9B21529EED3FEE7A479000825
:100B30007CB5DDE90645CDE9004500F001F87CBD56
:100B4000F0B587B00546DDE90C760170481C6AD027
:100B500001F00F04012000FA04F46C80334C11F012
:100B6000F00F1FD0C1F30311012925D002292DD088
:100B7000032935D02E496960216841F020012160A8
:100B8000216801F02001059169880091AF7202216E
:100B9000CDE9027172B3032A2ED0022A2FD0012B85
:100BA00035D035E023496960216841F001012160B9
:100BB000216801F00101E6E71F496960216841F001
:100BC00002012160216801F00201DCE71B49696034
:100BD000216841F004012160216801F00401D2E79D
:100BE00017496960216841F008012160216801F01E
:100BF0000801C8E7002000E0032001900FE0012B6E
:100C000002D0019104960AE012200190FAE7112027
:100C10000190012A03D13146284600F097F8694631
:100C2000686800F035FA07B0F0BD00001C380240DB
:100C3000001402400000024000040240000802408C
:100C4000000C02402DE9F04186B01F009046054699
:100C50004FF000064FF006046CD068880090012920
:100C600016D0022916D035480190A87A02900220A9
:100C700003906946686800F00BFA5FEA08000BD041
:100C8000012809D0022809D0B8F1030F09D107E0E3
:100C90002B48E9E72B48E7E7032602E0022600E0BD
:100CA00001266888B0F5807F33D012DC10282ED062
:100CB00008DC012830D0022823D0042823D00828BB
:100CC0002AD122E0202824D0402822D0802823D1F5
:100CD0001FE0B0F5805F1ED009DCB0F5007F18D0B2
:100CE000B0F5806F17D0B0F5006F15D113E0B0F5F7
:100CF000005F10D0B0F5804F0DD0B0F5004F0BD194
:100D000009E0072408E0082406E0092404E00A2496
:100D100002E0172400E0282428780B4900F00F0097
:100D2000002241F820703146204600F0EBFA2046C0
:100D300000F0DDFA06B0BDE8F081000000003110DF
:100D40000000111000002110C402002090F90020C2
:100D5000521C04D0CAB24188406800F064BA70479F
:100D6000FFF770BFFFF7F2BF70B504000BD0E06C67
:100D700040F00200E0642046FFF72AFD06004FF035
:100D8000000502D065E0012070BD21686FF01F00F2
:100D9000086020684168314A1140416020688168DC
:100DA0002F4A1140816000BF2068C1686FF31401B1
:100DB000C1602068016901F040410161206841691A
:100DC00001F040414161206881696FF30B0181614D
:100DD0002068C1696FF30B01C1612068016A6FF37C
:100DE0000B0101622068416A6FF30B0141622068C8
:100DF000816A6FF30B0181622068C16A6FF30B0196
:100E0000C1622068016B174A114001632068416B81
:100E100001F0404141632068816B01F040418163F2
:100E20002068C16B01F04041C1632068016C01F092
:100E3000404101642068416C6FF3150141640A4828
:100E4000016821F400010160204600F0DDF825650D
:100E5000E56484F84850304670BD000000003CF85E
:100E60008CF0808000800FFE04270140F8B504005C
:100E70004FF0000503D0E06C002610B110E0012017
:100E8000F8BD26655B4884F84860016841F00101BF
:100E90000160006800F001000090204600F0B5F805
:100EA000E06CC00678D4E06C20F4885040F002007A
:100EB000E06451480168626821F4403111430160E7
:100EC0006169E0684FF40073084393FAA3F3E26B9F
:100ED000B3FA83F3216A9A4011430843022191FA3D
:100EE000A1F1626AB1FA81F102FA01F10843616B82
:100EF000102902D0A36B19430843236819684FF4E3
:100F00008077C943490629D5A169D4F81CC0084394
:100F1000A168D4F810E041EA0C01BE450CD0BEF146
:100F2000010F09D04FF0000C41EA0C01D4F82CC09D
:100F3000BCF1010F02D00AE0BC46F5E76AB3E26CEF
:100F400042F02002E264226D42F0010222655A68FA
:100F5000DFF8A8C002EA0C020A435A6021688A68D6
:100F6000274B1A4002438A602169B94224D00129E3
:100F700022D021680A6B22F0F8720A63216889681E
:100F8000204A1140814227D12665E06C20F0020002
:100F900040F00100E0642AE028E0FFE74FF4604CF5
:100FA000226B9CFAACFCBCFA8CFC521E02FA0CF2CE
:100FB0000A4342F40061CAE721680A6B4FF0F877F0
:100FC00022F0F873A26A97FAA7F7B7FA87F7521ECA
:100FD000BA4013430B63D1E7E06C20F0020040F00D
:100FE0001000E064206D40F00100206501252846D6
:100FF000F8BD00002038024004270140FF16FCFC29
:101000008DF1FFC0FEFF80BF704770470248416806
:1010100041F0010141607047002004E0024841684E
:1010200041F0040141607047002004E0024841683B
:1010300041F0020141607047002004E031B500F04A
:10104000F7F8044600F0F4F80099001B8842F9D341
:1010500038BD0000002118B904E04008491CC9B29D
:101060000128FAD1034850F82100002800D0004799
:1010700070470000C4020020044910B50A6802420B
:1010800002D00860FFF7E6FF10BD00001404014025
:101090002DE9F84FDFF864B100234FF0010C4FF059
:1010A000030A4FF00F090BF1040EA0E00CFA03F64F
:1010B000324072D04C68022C01D0122C0ED1DC08C8
:1010C00000EB8408D8F820405D07EF0E09FA07F519
:1010D000AC430D69BD402543C8F8205007685D004A
:1010E00091F804800AFA05F408F00308A74308FA07
:1010F00005F848EA0708C0F800804F68012F05D0BE
:10110000022F03D0112F01D0122F11D18768D1F8EF
:101110000C80A74308FA05F848EA0708C0F80880D9
:101120004768B7430E79C6F300169E403E434660BB
:10113000C668A6438C68AC403443C4604C68E40085
:1011400054D52F4C256845F001052560246823F00F
:10115000030504F0010400942A4C2544AF689C0761
:10116000240F09FA04F6B743274EB04201D10026F6
:1011700015E0264EB04201D1012610E0244EB042C7
:1011800001D102260BE0234EB04201D1032606E036
:10119000214EB04202D1042601E027E00526A640F8
:1011A0003E43AE60DBF800405D464E689443F60374
:1011B00000D514432C60DEF8004075464E68944319
:1011C000B60300D514432C600C4D08352C684E68CE
:1011D0009443F60200D514432C60084D0C352C685E
:1011E0004E689443B60200D514432C605B1C0A6819
:1011F00032FA03F47FF45AAFBDE8F88F00040140DF
:10120000203802400000014000000240000402407B
:1012100000080240000C0240001002400069084033
:1012200000D0012070470AB1816170470904FBE7D3
:1012300001480068704700004C00002070B50400B1
:1012400011D021684CF6CC400860216845F2555019
:101250000860D4E9000141602168A0688860FFF758
:10126000E7FF054609E0012070BD00BFFFF7E0FF82
:10127000401B302801D9032070BD2068C0680028B9
:10128000F4D121684AF6AA200860002070BD0068E9
:101290004AF6AA2101600020704700000248016858
:1012A000491C0160704700004C00002010B503206D
:1012B00000F048F8002000F005F800F017F80020D2
:1012C00010BD000010B5044607484FF47A7100685D
:1012D000B0FBF1F001F0A4F900222146501E00F00D
:1012E00011F8002010BD000048000020704700F0F9
:1012F0001F02012191404009800000F1E020C0F868
:1013000000117047F0B40E4B1B680C46C3F3022368
:10131000C3F10705042D00D90425191D072901D2A1
:10132000002300E0DB1E012606FA05F1491E2140DC
:1013300099409E40761E16403143F0BC01F052BDEC
:101340000CED00E0064900F0070208684FF6FF03C5
:10135000184040EA0220034A10430860704700002A
:101360000CED00E00000FA050248006800F4C050EF
:1013700070470000007000402DE9F84F06460078E5
:10138000C00775D0DFF84C810027D8F80000C000F6
:101390000BD4D8F8001041F08051C8F80010D8F8EC
:1013A0000000012700F0805000904B4C2068C005E1
:1013B00010D4206840F480702060FFF739FF0546A4
:1013C00005E000BFFFF734FF401B64284ED82068BB
:1013D000C005F7D53F4D243D286800F0C041706836
:1013E00000F0C0428A4209D0C0F30141032905D16F
:1013F0002968890302D50120BDE8F88F354C1034E7
:10140000216811F440314AD000F44030884246D07F
:101410003078C00743D020684FF4000292FAA2F15E
:10142000B1FA81F14FEA810C2C494FF0010A8C444A
:1014300020F44030CCF880A692FAA2F2B2FA82F2FE
:1014400001EB82010023C1F880362060C00526D55B
:10145000FFF7EEFE81464FF4007B0AE0FFF7E8FE5F
:10146000A0EB090141F28830814202D90320C3E791
:101470002EE09BFAABF0B0FA80F040F04001BAEBFE
:10148000511F01D1296800E021689BFAABF2B2FA42
:1014900082F202F01F020AFA02F00142DED0706806
:1014A000C0F30141032906D1296800F0C04021F0B2
:1014B000C041014329602068716801F4403108434C
:1014C00020602FB1D8F8001021F08051C8F800102A
:1014D000002091E72438024000700040000047429D
:1014E0002DE9F047DFF8BC8105460E46D8F800002C
:1014F00000F00100B04214D2012E05D1D8F800103E
:1015000041F00401C8F80010D8F8001021F00101E2
:101510003143C8F80010D8F8000000F00100B042D4
:1015200071D12878604C800705D52068A96820F023
:10153000F000084320602878C00771D05A4A5A4BFF
:1015400069680120083A2C33022910D003292ED0D3
:1015500001292FD05FEA402797FAA7FCBCFA8CFC40
:101560004CF0200C5FEA5C1C04D0126803E04FF4DE
:101570000037F1E71A6897FAA7F3B3FA83F303F099
:101580001F039840024262D0206820F00300084305
:101590002060FFF74DFE6968074641F28830022956
:1015A00010D003291CD00129814626D034E04FF009
:1015B0000077D1E70227CFE7FFF73AFEC11B494585
:1015C00001D926E081462068C0F381000228F3D1CA
:1015D00026E000BFFFF72CFEC11B494501D918E0EA
:1015E00081462068C0F381000328F3D118E000BFD2
:1015F000FFF71EFEC11B49450BD82068C0F38100D0
:101600000128F5D10CE022E0FFF712FEC11B49458D
:1016100002D90320BDE8F087206810F00C0FF3D149
:10162000D8F80010404601F00101B14211D9012E55
:1016300003D1016841F004010160016821F001015A
:1016400031430160006800F00100B04201D0012088
:10165000E0E72878400705D52068E96820F4E060D5
:10166000084320602878000706D52068296920F4FF
:10167000605040EAC100206000F052F82168F0227A
:1016800092FAA2F201F0F001B2FA82F2D140074AD6
:10169000515CC840064908600020FFF713FE002097
:1016A000B8E70000003C02400838024069660008C4
:1016B00048000020014800687047000048000020F2
:1016C00008480949006809684FF4E06292FAA2F2FA
:1016D00001F4E061B2FA82F2D140044A515CC840A0
:1016E0007047000048000020083802407966000872
:1016F00008480949006809684FF4605292FAA2F25A
:1017000001F46051B2FA82F2D140044A515CC840FF
:101710007047000048000020083802407966000841
:101720001E4A116801F00C00042813D0082813D0B9
:101730000C2813D0101F006800F460414FF4604083
:1017400090FAA0F0B0FA80F0C1404FF40040491C7C
:101750008840704712487047124870474FF4701322
:1017600093FAA3F301F47010B3FA83F3D8400E4B4D
:1017700001F440011268185C4FF4400393FAA3F39C
:10178000B3FA83F3D940491CD20301D5054A00E0DE
:10179000034A5043B0FBF1F07047000008380240A4
:1017A0000024F40000127A00606600082DE9F84F6A
:1017B00007460078FB4EFC4DC0074FF0010428D0CF
:1017C000F848083001684FF40038C1F3810102295C
:1017D00007D00168C1F3810103291BD10068C00350
:1017E00018D598FAA8F0B0FA80F040F0200040092F
:1017F00001D0306800E0286898FAA8F1B1FA81F1C8
:1018000001F01F0104FA01F108425CD07868002859
:101810007BD058E0786801280AD008B1052811D09B
:10182000306820F480303060306820F4802002E09E
:10183000306840F480303060786828B3FFF7F8FCF7
:1018400081460BE0306840F480203060F0E700BF54
:10185000FFF7EEFCA0EB0900642872D898FAA8F014
:10186000B0FA80F040F02000400901D0306800E07C
:10187000286898FAA8F1B1FA81F101F01F0104FA81
:1018800001F10842E4D01EE0FFF7D2FC814605E0FA
:10189000FFF7CEFCA0EB09006428DED898FAA8F088
:1018A000B0FA80F040F02000400901D0306800E03C
:1018B000286898FAA8F1B1FA81F101F01F0104FA41
:1018C00001F10842E4D13878DFF8E08280074FF078
:1018D000000B4FF002095FD5B24808300168C1F330
:1018E0008101012907D00168C1F3810103291CD1BD
:1018F0000068C00319D499FAA9F0B0FA80F040F05A
:101900002000400902D0306801E086E0286899FA9A
:10191000A9F1B1FA81F101F01F0104FA01F10842C5
:101920002BD0F868012878D127E0F868A8B394FA9A
:10193000A4F0B0FA80F048F82040FFF779FC824626
:1019400006E066E1FFF774FCA0EB0A00022884D8E9
:1019500099FAA9F1B1FA81F141F02001490901D0C8
:10196000316800E0296899FAA9F0B0FA80F000F037
:101970001F0004FA00F00142E4D08A48001D01680B
:101980004FF4F85393FAA3F33A69B3FA83F321F4CB
:10199000F8519A401143016025E0FFE794FAA4F161
:1019A000B1FA81F148F821B0FFF742FC824605E028
:1019B000FFF73EFCA0EB0A000228C8D899FAA9F06C
:1019C000B0FA80F040F02000400901D0306800E01B
:1019D000286899FAA9F1B1FA81F101F01F0104FA1E
:1019E00001F10842E4D138784FF4007AC0067CD582
:1019F0006C480830006810F00C0F0FD0B9694FF434
:101A00008070002972D090FAA0F0B0FA80F048F807
:101A10002040FFF70DFC00907EE087E09AFAAAF0E4
:101A2000B0FA80F040F02000400901D0306800E0BA
:101A300028689AFAAAF1B1FA81F101F01F0104FABB
:101A400001F1084202D0B86900286FD05548396AC0
:101A5000001D006800F4604081421AD9084601F078
:101A600091FB002862D14F48001D01683A6A21F4B9
:101A700060411143016001684FF07F4393FAA3F383
:101A8000FA69B3FA83F321F07F419A401143016070
:101A900018E04448001D026822F460420A430260D4
:101AA00001684FF07F4393FAA3F3FA69B3FA83F323
:101AB00021F07F419A4011430160386A01F062FBD6
:101AC0000028CFD14FF4604191FAA1F1386AB1FA00
:101AD00081F1C8404FF40041401C8140314808303A
:101AE0000068F02200F0F00001E070E040E092FABF
:101AF000A2F2B2FA82F2D0402D4A105CC1402D48C9
:101B000001600020FFF7DEFB61E000BFFFF790FB04
:101B10000099401A02287CD89AFAAAF0B0FA80F00C
:101B200040F02000400902D0306801E0BCE12868A4
:101B30009AFAAAF1B1FA81F101F01F0104FA01F158
:101B40000842E3D01748001D01683A6A21F4604159
:101B50001143016001684FF07F4393FAA3F3FA69E0
:101B6000B3FA83F321F07F419A40114301602EE0E4
:101B700090FAA0F0B0FA80F048F820B0FFF758FBD8
:101B8000009005E0FFF754FB0099401A0228C2D8E4
:101B90009AFAAAF0B0FA80F040F0200040090BD089
:101BA00030680AE000380240343802400000474202
:101BB000696600084800002028689AFAAAF1B1FA7C
:101BC00081F101F01F0104FA01F10842DAD13878FD
:101BD000000753D5786948B394FAA4F0B0FA80F0BE
:101BE00008EB8000C0F88046FFF722FB009005E07C
:101BF000FFF71EFB0099401A02288CD899FAA9F029
:101C0000B0FA80F040F04000B4EB501F02D13068D1
:101C100001E08EE0286899FAA9F1B1FA81F101F0AA
:101C20001F0104FA01F21042E2D027E094FAA4F175
:101C3000B1FA81F108EB8101C1F880B6FFF7F8FA3B
:101C4000009005E0FFF7F4FA0099401A022870D8D6
:101C500099FAA9F0B0FA80F040F04000B4EB501FC0
:101C600001D1306800E0286899FAA9F1B1FA81F150
:101C700001F01F0104FA01F21042E3D13878400765
:101C80007BD59B484FF000090068C0000AD49848F3
:101C9000016841F08051016000684FF0010900F0D7
:101CA0008050009093480168C90511D4016841F43F
:101CB00080710160FFF7BCFA009005E0FFF7B8FA09
:101CC0000099401A642834D88A480068C005F5D5C0
:101CD000B86801280AD008B1052811D0286820F476
:101CE00080702860286820F4806002E0286840F452
:101CF00080702860B86848B3FFF79AFA00900DE04A
:101D0000286840F480602860F0E700BFFFF790FA91
:101D10000099411A41F2883081420AD89AFAAAF011
:101D2000B0FA80F040F04000B4EB501F02D13068B0
:101D300001E095E028689AFAAAF1B1FA81F101F080
:101D40001F0104FA01F21042E0D022E0FFF770FA1E
:101D5000009007E0FFF76CFA0099411A41F28830D1
:101D600081427DD89AFAAAF0B0FA80F040F04000A3
:101D7000B4EB501F02D1306801E012E028689AFAF3
:101D8000AAF1B1FA81F101F01F0104FA01F2104247
:101D9000E0D1B9F1000F04D05548016821F080511D
:101DA0000160786AE8B3DFF84891A9F11C09D9F815
:101DB0000010C1F38101032976D002284FF0807111
:101DC0004FF0007A58460BD091FAA1F1B1FA81F1A7
:101DD00048F82100FFF72CFAB046074656466DE05A
:101DE0004FF0807191FAA1F1B1FA81F18A00424974
:101DF0005050FFF71DFAB3468046564606E000BF36
:101E0000FFF716FAA0EB0800022854D896FAA6F0BD
:101E1000B0FA80F040F02000400903D0DBF8000069
:101E200001E061E0286896FAA6F1B1FA81F101F0CB
:101E30001F0104FA01F10842E2D1D7E90A103A6B16
:101E4000D9F80030014323F47D031A431143C9F844
:101E500000104FF0807090FAA0F0B0FA80F000E02F
:101E600029E0810024480C50FFF7E2F9074604E01E
:101E7000FFF7DEF9C01B02281DD896FAA6F0B0FACB
:101E800080F040F02000400902D0DBF8000000E0C4
:101E9000286896FAA6F1B1FA81F101F01F0104FA5F
:101EA00001F10842E4D01FE020E000BFFFF7C0F9D5
:101EB000C01B022802D90320BDE8F88F96FAA6F0CD
:101EC000B0FA80F040F02000400902D0D8F80000BD
:101ED00000E0286896FAA6F1B1FA81F101F01F013D
:101EE00004FA01F10842E1D10020E5E70120E3E72F
:101EF00024380240007000400000474270472DE93E
:101F0000F0470446007F01281CD0012626770220D6
:101F100060772168CA20486221685320486220689F
:101F2000816821F4806181602068816821F48041AA
:101F30008160FFF77DF9054600274FF0FF084FF459
:101F40007A790EE00220BDE8F087FFF771F9401BB7
:101F5000484506D92168C1F8248003206077277797
:101F6000F1E72068C0684007EFD52168C1F82480F8
:101F7000667727770020E6E77047000010B5044633
:101F800000688168C9040CD5C068C00509D5204621
:101F9000FFF7F2FF2068C16801F0800161F4C071B1
:101FA000C1602068816889040CD5C068800509D5A6
:101FB0002046FFF7A3FF2068C16801F0800161F4AB
:101FC0002071C16003494FF4003008600120607740
:101FD00010BD0000140401402DE9F0470446007FC5
:101FE000012822D04FF0010884F81C80022060777D
:101FF0002268CA205062226853205062206800255F
:10200000FF26B1F5807F81684FF0030A4FF47A799B
:102010000ED021F4007181602068816821F40051A4
:102020008160FFF705F9074624E00220BDE8F0874C
:1020300021F4807181602068816821F48051816081
:10204000FFF7F6F8074604E0FFF7F2F8C01B484533
:1020500009D82068C068C007F6D00FE0FFF7E8F89D
:10206000C01B484506D92068466284F81DA0257724
:102070000320DBE72068C0688007EFD52068466250
:1020800084F81D8025770020D0E710B50C464FF46A
:1020900080718A4203D1A1610068C16904E04FF4F4
:1020A0000071A1610068016AC1F305402070C1F3AD
:1020B0000622627001F07F02A270402202EA114201
:1020C000E270C1F30562227501F0804201F08031B7
:1020D000C4E9031273B901F0A7F82070607801F029
:1020E000A3F86070A07801F09FF8A070207D01F047
:1020F0009BF82075002010BD10B500680B464168A4
:102100000D480140080CD870C1F304245C7001F044
:102110003F049C70C1F34231197052B901F084F848
:10212000D870587801F080F85870987801F07CF8F1
:102130009870002010BD00003FFFFF0010B5006840
:102140000C4601680E480140C1F305402070C1F300
:102150000623637001F07F03A370402303EA11415B
:10216000E17052B901F060F82070607801F05CF81D
:102170006070A07801F058F8A070002010BD000039
:102180007F7F7F0070B5040002D0607F10B106E051
:10219000012070BD00202077204600F041F8022089
:1021A00060772168CA20486221685320486220462F
:1021B00001F04EF8FF210028206803D0416204207E
:1021C0006077E5E78268154B1A4082602268906864
:1021D00063681843D4E904352B43184390602268A0
:1021E000E068106120680269238942EA03420261C3
:1021F0002068C26822F08002C2602068026C22F46B
:10220000802202642068026CA3691A430264206879
:10221000416201206077002070BD0000BFFF8FFF8A
:10222000704700002DE9F05F0446007F0D4601284D
:1022300044D04FF0010B84F81CB002206077206876
:10224000002780684FEA4060BAB3002852DA287845
:1022500000F0EAFF287D00F0E7FFA8782978EA7807
:1022600040EA01406978090241EA02410843297DB8
:1022700040EA0166286921680643E8680643CA20E7
:102280004862216853204862A869FF25B0F5807F25
:1022900020684FF0030A4FF47A7981682CD021F43A
:1022A000007181602068C16801F0800161F42071D3
:1022B000C160FEF7BDFF80464FE002E00220BDE8AE
:1022C000F09F002800DBEF70287800F0B6FF0604CE
:1022D000687800F0B2FF46EA0026A87800F0ADFF6B
:1022E0000643E87846EA0046287D00F0A6FF46EA65
:1022F0000066BFE7EF70ADE721F480718160206870
:10230000C16801F0800161F4C071C160FEF790FF07
:10231000804605E0FEF78CFFA0EB0800484515D885
:102320002068C068C007F5D02068C6612068816851
:1023300041F4807181602068816841F480511BE024
:10234000FEF776FFA0EB0800484506D920684562F5
:1023500084F81DA027770320B1E72068C0688007B4
:10236000EED5206806622068816841F400718160C2
:102370002068816841F4005181600948016841F496
:102380000031016006480830016841F40031016005
:102390002068456284F81DB0277700208FE7000091
:1023A000000401402DE9F0470446007F0B46012858
:1023B00025D04FF0010984F81C90022060775878EE
:1023C00002B300F031FF987800F02EFF9878D978AA
:1023D00040EA014558781978000240EA4130054347
:1023E0002168CA204862216853204862204600F0D4
:1023F0002FFF0026FF274FF0040838BB19E002200A
:10240000BDE8F087C10603D500F0EF000A30587030
:10241000D87800F012FF0204587800F00EFF42EA6C
:102420000022987800F009FF0243187842EA40350C
:10243000D6E70D480540206845602068C16821F056
:102440008001C160204600F085F830B12068476205
:1024500084F81D8026770120D2E72068476284F83F
:102460001D9026770020CBE73FFFFF002DE9F047C6
:102470000446007F0D46012811D04FF0010A84F870
:102480001CA0022060772068002680684FEA406028
:1024900042B100281ADA287800F0C6FE17E00220C0
:1024A000BDE8F087002800DBEE70287800F0C5FE5C
:1024B0000204687800F0C1FE42EA0022A87800F029
:1024C000BCFE0243E87842EA00470AE0EE70A878D2
:1024D000297840EA01476878E978000240EA01403B
:1024E00007432168CA204862216853204862204679
:1024F00000F0AEFE4FF0FF084FF00409C0B91448D9
:102500000740206807602068816821F4802181608D
:10251000D5E90101084321688A6810438860206872
:10252000C16821F08001C160204600F013F838B185
:102530002168C1F8248084F81D9026770120AFE738
:102540002168C1F8248084F81DA026770020A7E721
:102550007F7F7F0070B504460068C16821F0A0014C
:10256000C160FEF765FE05464FF47A7607E000BFCE
:10257000FEF75EFE401BB04201D9032070BD20680B
:10258000C0688006F4D5002070BD70B5040004D08A
:1025900094F85100002510B106E0012070BD84F8C8
:1025A0005050204600F02EF8022084F85100206898
:1025B000016821F040010160D4E901010843D4E938
:1025C00003121143084361690843218B01F4007130
:1025D0000843E1690843216A0843A16A0843216866
:1025E0000860A069042101EA1040616A084321687B
:1025F00048602168E06A08616565012084F851003F
:10260000002070BD70474FF0E0210428086903D016
:1026100020F004000861704740F00400FAE77047BA
:1026200010B5401EB0F1807F01D3012010BD4FF0E6
:10263000E02460610F21601700F0D4FB0020A0614E
:1026400007202061002010BD10B5FFF7E8FF10BD86
:1026500010B5040003D094F8350010B107E0012054
:1026600010BD002084F83400204600F00DF8022050
:1026700084F83500211D206802F0DAFE012084F87C
:102680003500002010BD000008B501681D48B1F1FB
:10269000804F11D01C4A91421DD1016841F00201C6
:1026A00001600068012200F00200009003211D205B
:1026B000FEF728FE1D201FE0016841F001010160C6
:1026C0000068002200F00100009003211C20FEF7AA
:1026D00019FE1C2010E00D4A914211D1016841F011
:1026E000040101600068012200F004000090032151
:1026F0001E20FEF707FE1E20BDE80840FEF7F7BDCE
:1027000008BD0000243802400004004000080040DA
:102710000168CA6842F00102CA600068016841F0BD
:102720000101016000207047704770B504460068E1
:1027300001694FF00005C943890715D4C168C94331
:10274000890711D4E91E0161012020752068806984
:102750008007204602D0FFF7E7FF04E000F078F89A
:10276000204600F076F8257520680169C9434907BD
:1027700017D4C168C943490713D46FF0040101613C
:10278000022020752068806910F4407F204602D026
:10279000FFF7CAFF04E000F05BF8204600F059F8AC
:1027A000257520680169C943090716D4C168C94362
:1027B000090712D46FF00801016104202075206818
:1027C000C0698007204602D0FFF7AEFF04E000F0AA
:1027D0003FF8204600F03DF8257520680169C9439F
:1027E000C90617D4C168C943C90613D46FF01001D4
:1027F0000161082020752068C06910F4407F2046E0
:1028000002D0FFF791FF04E000F022F8204600F02C
:1028100020F8257520680169C943C90708D1C16836
:10282000C943C90704D1891E0161204600F012F88E
:1028300020680169C943490609D4C168C9434906EA
:1028400005D46FF040010161204600F01DF870BD15
:102850007047704701680948B1F1804F06D0084AB7
:10286000914205D14068002807D000470068FAE788
:10287000044A914201D18068F5E77047300000209A
:102880000004004000080040704770B5040004D008
:1028900094F83900002510B106E0012070BD84F8DD
:1028A0003850204600F020F8022084F839002068D3
:1028B000C16821F40051C160204602F097FF2068F2
:1028C000016921F4904101612068416921F02A01E8
:1028D00041612068C16841F40051C160E563012095
:1028E00084F83900002070BD7047000090F839303E
:1028F000012B01D0122B2CD139B332B390F83830E0
:10290000012B26D0012380F8383081628285C28570
:102910000021C16390F83920122A18D05FF02202FA
:1029200080F8392080F838100168CA6842F4807253
:10293000CA6001684A6942F001024A610068C168E0
:1029400041F02001C1600020704701207047322211
:10295000E6E702207047000010B586B014216846F3
:10296000FDF7FDFB0E48016841F0020101600068BF
:102970000C4C00F0020005900122C0212046FEF719
:1029800052FCC020009011200190012002900220F2
:10299000039069462046FEF77BFB06B010BD0000A1
:1029A0001C380240000402402DE9F05F8B460021F4
:1029B0000170364D91468046012280212846FEF75F
:1029C00032FC012000F016F9802601224021284621
:1029D000FEF729FC0120FEF72DF84C4600270120C8
:1029E00000F056F84FF47A7A07E0641EE4B201D2A0
:1029F00004270BE05046FEF71DF840212846FEF75D
:102A00000DFC0028F1D0002000F042F80320FEF772
:102A100011F880212846FEF701FC20B198F800004B
:102A2000304388F80000002240212846FEF7FBFBD7
:102A30000120FDF7FFFF7608C7D1002000F0DAF88B
:102A4000BBF1000F1FD0012280212846FEF7EBFBCF
:102A50000120FDF7EFFF012240212846FEF7E3FBAE
:102A60000520FDF7E7FF002240212846FEF7DBFBAB
:102A7000012280212846FEF7D6FB1420FDF7DAFF5D
:102A80003846BDE8F09F0022DEE700000004024067
:102A900010B586B0044614216846FDF760FB40205F
:102AA0000090012C01D0112000E0002001900120B5
:102AB00002900220039069460248FEF7E9FA06B048
:102AC00010BD00000004024010B5114C012280210D
:102AD0002046FEF7A8FB0120FDF7ACFF01224021B4
:102AE0002046FEF7A0FB0120FDF7A4FF0022802175
:102AF0002046FEF798FB0A20FDF79CFF00224021AC
:102B00002046FEF790FBBDE810400A20FDF792BF7B
:102B10000004024010B5114C002240212046FEF76F
:102B200082FB0120FDF786FF002280212046FEF770
:102B30007AFB0120FDF77EFF012240212046FEF7AF
:102B400072FB0A20FDF776FF012280212046FEF766
:102B50006AFBBDE810400A20FDF76CBF000402408C
:102B60002DE9F0410025224E074680243C4201D148
:102B7000002200E0012280213046FEF754FB0120B4
:102B8000FDF758FF012240213046FEF74CFB05209F
:102B9000FDF750FF002240213046FEF744FB0120A4
:102BA000FDF748FF6408E1D1012280213046FEF79D
:102BB0003AFB012240213046FEF735FB0120FDF7AC
:102BC00039FF012000F016F880213046FEF726FB81
:102BD00000B10125002240213046FEF724FB1420DD
:102BE000FDF728FF002000F005F82846BDE8F08139
:102BF0000004024010B586B0044614216846FDF773
:102C0000AEFA80200090012C01D0112000E00020BD
:102C10000190012002900220039069460248FEF7CD
:102C200037FA06B010BD0000000402400148FEF76C
:102C30002EBB000030080020044A034B1360C2E999
:102C400001011046FEF7FABA0030004030080020BB
:102C500010B5FDF74BFEFDF785FE40F60811042088
:102C6000FFF7EAFF00F0ECF84FF47A7213461421F4
:102C70000E4800F06DF8FDF79DFD4FF4165002F080
:102C80002BFF00F0FFFE0A4800F000FB094803F0AC
:102C9000A1FC4FF4487002F001FC074803F0A0FCCF
:102CA000BDE81040042002F047BC0000400ECF19E0
:102CB0009C000020D5550008F5550008074910B5BF
:102CC0000120087003F024F901210548FEF74AF8B5
:102CD000BDE81040012002F081B900000000002092
:102CE00050020020074910B500200870012003F0B1
:102CF0000FF900210448FEF735F8BDE81040002028
:102D000002F06CB900000020500200207047FEE77E
:102D10007047000008480749016008498160084978
:102D200041600849C16008490161084801680248DA
:102D30000847000031310008C8000020BD300008FD
:102D40004931000819310008013100080466000803
:102D50002DE9F0411D4614460E460746FFF7DAFFFF
:102D600022463146384600F009F80348416B2846B0
:102D7000BDE8F04108470000046600082DE9F04175
:102D8000174D88468AB0E96816468847002405949E
:102D90000694CDE9074608270320CDE9010701265F
:102DA00007200090CDE90346D5F81CC023462246F3
:102DB00041463046E047CDE90846CDE90446069451
:102DC00005200794CDE90204CDE90047032307223B
:102DD0000021AC690120A0470AB0BDE8F0810000E5
:102DE000046600080907090E002806DA00F00F0043
:102DF00000F1E02080F8141D704700F1E02080F819
:102E00000014704770B5002404F1B000C0B2002176
:102E100000F020F90021022000F01CF90021102010
:102E200000F018F900250121002000F013F96D1CB5
:102E3000EDB2802DF7D3641CE4B2082CE4D370BD4E
:102E4000A62000F001B800007CB5012405460094DE
:102E5000002322461C214D480194FDF769FE4B4892
:102E60000094002301221E210C300194FDF760FE26
:102E700046480094002301221D2118300194FDF7DB
:102E800057FE42480094002301221F212430019460
:102E9000FDF74EFE0021AE2000F0DCF800210220FC
:102EA00000F0D8F80021102000F0D4F800214020D4
:102EB00000F0D0F80021812000F0CCF80021CF20D4
:102EC00000F0C8F80021A12000F0C4F80021C820BB
:102ED00000F0C0F80021A62000F0BCF80021A820D6
:102EE00000F0B8F800213F2000F0B4F80021D32012
:102EF00000F0B0F80021084600F0ACF80021D52021
:102F000000F0A8F80021802000F0A4F80021D920CA
:102F100000F0A0F80021F12000F09CF80021DA2058
:102F200000F098F80021122000F094F80021DB2036
:102F300000F090F80021402000F08CF800212020C3
:102F400000F088F80021022000F084F800218D2094
:102F500000F080F80021142000F07CF80021A4206B
:102F600000F078F80021284600F074F80021AF2026
:102F700000F070F80021AF2000F06CF8FFF742FF7E
:102F8000BDE87C400021084600F002B8B4050020EE
:102F900010B50446B031C8B2002100F05BF8102033
:102FA00040EA1410002100F055F804F00F00BDE8CD
:102FB000104040F00100002100F04CB82DE9F04134
:102FC000203A00240D468046D7B27F2803D900203E
:102FD0008D1C8046EDB22946FFF7DAFF0F4E00BF89
:102FE00004EB07100121305C00F034F8641CE4B2FB
:102FF000082CF5D36D1CE9B24046FFF7C9FF002449
:1030000004EB071030440121007A00F023F8641C1F
:10301000E4B2082CF4D3BDE8F0810000816600081A
:103020002DE9F04117460E46044600250CE03146D6
:103030002046FFF7C3FF0834E4B2782C02D90024FD
:10304000B61CF6B26D1CEDB27A5D002AEFD1BDE878
:10305000F081000070B5054601B101211648FDF769
:1030600081FE154800210C38FDF77CFE0024124833
:1030700000210C30FDF776FE280601D5012100E085
:1030800000210D481830FDF76DFE0B4801210C3072
:10309000FDF768FE6806641C050EE4B2082CE6D352
:1030A000054801210C38FDF75DFEBDE870400121A7
:1030B0000148FDF757BE0000C00500202DE9F0478C
:1030C0000C4E07469946F06A15460C468047DFF8D5
:1030D000288022463946A8F802400848FDF726F81D
:1030E00088F8005088F80190716BBDE8F0474FF404
:1030F0007A7008470466000812000020E4000020EF
:1031000010B5044CE06A8047616BBDE810404FF495
:103110007A7008470466000810B5044CE06A8047DE
:10312000616BBDE810404FF47A70084704660008F0
:1031300010B5044CE06A8047616BBDE810404FF465
:103140007A7008470466000810B5044CE06A8047AE
:10315000616BBDE810404FF47A70084704660008C0
:1031600010B5064802F0FCFA05484178002903D062
:10317000002141700121017010BD0000A005002058
:1031800040000020F8B507461A48002600681A4D8E
:1031900010F0F00F20D1174C1C342068C00002D56D
:1031A000FEF7E2F80DE0206840F0805020602068D3
:1031B00000F080500090FEF7D7F8216821F0805190
:1031C0002160B0F5C05F07D1B7F5404F04D1286842
:1031D000012640F004002860286820F001003043F8
:1031E0002860286800F00100B04201D00120F8BD3D
:1031F0000020F8BD08380240003C024010B50948E4
:10320000FEF7BCFE4FF480710648FEF7E5FE00F0C5
:10321000C1FA00F03FF90020FDF74AFBBDE810407D
:1032200002F02CBA04030020010901EB810100F037
:103230000F0000EB4100C0B27047002102E00A38E5
:10324000C0B2491C0A28FAD2090740EA1160704747
:1032500070B504460068C168490614D44FF0FF31C8
:10326000C160FDF7E5FF05464FF47A7607E000BF41
:10327000FDF7DEFF401BB04201D9032070BD20687E
:10328000C0684006F4D5002070BD00000346074822
:1032900010B5448844B100214180224604491846B3
:1032A000FCF744FF204610BD002010BD1200002096
:1032B000E40000200FB414222DE9F04F87B00C4633
:1032C00012A96846FCF732FF9DF852000590674846
:1032D0009DF851809DF850709DF84C60844201D259
:1032E00014B102E0044600E001242046FDF7F2F8A4
:1032F0005F4A604BFCF7E5FF8A46814603F064F8BD
:1033000004460D464A465346FCF7D5FF00225A4B69
:10331000FCF7D7FFDFF864A181468B46DAF80C0092
:10332000FDF7C7F84A465B46FCF724FFFDF7DFF8D8
:10333000DFF84C91DFF84CB1CAF80C00B0F5F47F1F
:1033400016DBA0F5F470CAF80C0000224E4B2046A4
:103350002946FCF70FFF04460D4609E000224B46C4
:1033600020462946FCF7A7FF761C04460D46B6B258
:1033700000224B4620462946FDF70AF9EED9D946E8
:1033800000224B4620462946FDF702F917D80022B5
:103390004B4620462946FCF78EFF7F1C04460D460F
:1033A000BFB2EDE700224B4620462946FCF783FFDB
:1033B000044608F101000D461FFA80F801E0DFF82D
:1033C000CC9000224B4620462946FDF7E1F8E9D98A
:1033D0000598FDF77FF822462B46FCF7CBFEFDF75C
:1033E000A5F880B205E03C3808F1010180B21FFA6F
:1033F00081F83C28F7D205E0A8F13C017F1C1FFAB8
:1034000081F8BFB2B8F13C0FF6D203E0183F761C4A
:10341000BFB2B6B2182FF9D29DF84D1009B39AF881
:103420000620114489071CD09DF84B201849491EDD
:10343000515CB14203D2B6FBF1F201FB12668DF88A
:103440000A008DF809808DF804608DF80870142248
:1034500069461098FCF76AFE07B0BDE8F00F5DF80A
:1034600014FB0B499DF84B200C31E0E7420612009B
:10347000FCA9F1D24D62004000408F401C000020AA
:103480000018F5400020AC400000F03F00004E4026
:10349000EC65000810B5224C92B0607900283CD150
:1034A0000DA800F0F1F814220DA901A8FCF73EFECA
:1034B00000234FF4807206A91A48FEF7E6FD9DF836
:1034C0001900C0EB001081009DF81800C0EB4012FD
:1034D000C2EB002001EB00109DF81A1008449DF883
:1034E0000D10C1EB01118A009DF80C10C1EB4113C6
:1034F000C3EB012102EB01119DF80E201144081AC3
:10350000FCF7E8FF0022084BFCF7DBFE02F0F0FDC1
:10351000FDF70CF8A0600120607112B010BD000032
:103520001C000020040300200040DF3F2DE9F0478D
:1035300000248AB0254680B1142201466846FCF773
:10354000F5FD9DF80510BDF800000026DFF8F490A9
:10355000DFF8F4A088460F1812E005A800F094F8F0
:10356000142205A9EAE7CEB1B00717D000225346CE
:1035700020462946FCF7FEFD761C04460D4636B271
:10358000B742F0DCB8F1000F0BD0B80709D09DF8B6
:1035900003700026DFF8B4807F1E2BE000224B462C
:1035A000E6E7DFF8A8809DF80370002608F10C0814
:1035B0007F1E0DE018F8060025494843FCF78AFFF6
:1035C00022462B46FCF7D6FD761C04460D46F6B285
:1035D000B742EFDC10E000BF18F806001C49484372
:1035E000FCF778FF22462B46FCF7C4FD761C044608
:1035F0000D46F6B2B742EFDC9DF809109DF80A00BF
:10360000C1EB011100EB81029DF808004FF46161EC
:1036100048439DF8041040F2A323594300EBC11026
:103620001044FCF757FF22462B46FCF7A3FD00226F
:10363000084BFCF746FE02F0C7FE0AB0BDE8F047B3
:10364000FCF774BF50287E4138137E41EC650008BA
:10365000805101000040DF3F0A498B6800229842F8
:1036600004D94B7813B14A708B68C01A8B689842A2
:1036700002D9322801D28A70704701228A70896883
:10368000401A70471C00002010B586B00446002286
:10369000114802A9FEF752FD00220F480DF1020168
:1036A000FEF72AFD0D499DF80530CA88ADF80020C7
:1036B000632B03D0087840B11BB106E001200870ED
:1036C00003E0002008706432CA8014226946204654
:1036D000FCF72CFD06B010BD040300201C000020E8
:1036E00010B50020FFF722FF04460548FFF71EFF34
:1036F000844202D2C043204410BD201A10BD0000F5
:103700002403002070B51F4E86B03079002837D1D1
:103710000125A80590FAA0F01B49B0FA80F001EB52
:103720008000C0F880561A4818490024C0E90014E7
:1037300003218160C0E9031444618461FEF722FD26
:103740008DF8035006208DF805408DF802008DF8A5
:10375000045000220E480DF10201FEF723FE0294F0
:10376000039400220A4802A90494FEF77FFE002277
:1037700004212920FDF7C6FD2920FDF7B8FD35718C
:1037800006B070BD1C000020000047420028004029
:10379000040300200C484168C943C9070ED00B49F7
:1037A000012048700A480168C1F38101012903D052
:1037B000006810F00C0F06D1FDF798B8016841F0D1
:1037C00004010160EEE77047007000401C0000201B
:1037D00008380240AFF3008030B505464FF48074DE
:1037E00099B021462048FEF7F7FB1F48FEF787FBFC
:1037F00014A8FFF749FF142214A908A8FCF796FCA7
:103800001948142208A92030FCF790FC0AAB93E871
:1038100007008DE80700DDE90823294614A8FFF713
:1038200049FD142214A903A8FCF780FC0020119084
:1038300010908DF837009DF816008DF836009DF831
:1038400015008DF835009DF8140013948DF83400A0
:103850009DF810008DF8480000220DA90248FEF7DF
:10386000E1FC19B030BD00000403002070B5092050
:1038700000F0DDFC0546062000F0D9FC040407201A
:1038800000F0D5FC44EA0024082000F0D0FC2043DE
:10389000FCF720FE0022184BFCF713FDFCF746FE58
:1038A00004460021092001F003FB3B2000F0BFFC8F
:1038B00040F040013B2001F0FBFA3B2000F0B7FC58
:1038C0008006FAD40D4800F0ABFD3B2000F0AFFCC1
:1038D00040F040013B2001F0EBFA3B2000F0A7FC58
:1038E0008006FAD42946092001F0E2FA2046BDE814
:1038F000704000F095BD000080844E4000A1BC33B4
:1039000010B501F043FB02F0A9FD02F0CFFDBDE8C8
:1039100010404FF47A5001F02BBB70B50446FF20E5
:10392000002240F231150FE0A35C58400823060640
:1039300002D585EA400000E040005B1EC0B213F0F3
:10394000FF03F4D1521CD2B28A42EDD370BD000005
:1039500038B50446FFF700F80548447000F02FF82A
:103960004CF25030FDF766F8684600F064F838BD58
:10397000500000207CB50D46044600216846FFF744
:1039800013F8B8B9002211460DF10100FFF70CF849
:1039900080B90022294601A8FFF706F850B9684609
:1039A00002219DF80450FFF7B8FFA84201D0022081
:1039B00000E00020BDF8001049BA21807CBD10B5A0
:1039C00000F020F8044643F2A20000F029F8044376
:1039D000FFF7A0F81CB94CF25030FDF72BF8204649
:1039E00010BD000010B5FFF76FF8054801214078C1
:1039F000BDE8104001EB4000C0B2FFF7B1B80000D5
:103A00005000002010B5FFF75FF804484078BDE88B
:103A100010404006000EFFF7A3B800005000002041
:103A200070B50446000AFFF79BF80546E0B2FFF7C1
:103A300097F8284370BDF8B50546FFF7E3FF064643
:103A40004FF45E50FFF7ECFF50EA060411D1FFF788
:103A5000C9FF04000DD1642200216846FFF78AFFE8
:103A6000040006D1002201210DF10200FFF782FFC0
:103A70000446FFF74FF81CB900984FEA3040286021
:103A80002046F8BD10B54420FFF762FF002804D09F
:103A9000FFF736FF01490120087010BD50000020DB
:103AA000012070470349884201D2802070470020DE
:103AB0007047000040DD4A1F014890F8AC00704795
:103AC000E40600202DE9F34F0200724981B04FF067
:103AD00000000CD0012A7DD10024D1F8EC0025464D
:103AE000072854D0082855D0092858D155E08A46CF
:103AF000D1F8C400FCF7EEFC06460F460298FCF72E
:103B0000E9FC80468946302000F091FB30F0F90056
:103B10004FF0000401D0604D00E00025272000F0A8
:103B200086FB20F0F800BAF8C810401C0844FCF7E7
:103B3000D1FC9AF8CA20012A4FF0000222D0564B3D
:103B4000FCF718FB22462B46FCF714FB42464B467B
:103B5000FCF710FB9AF8CC20012A4FF0000213D09A
:103B60005FF00003FCF706FB0322FCF78BFC3246F8
:103B70003B46FCF718FC0022484BFCF7A2FB02F086
:103B800023FC7FE00023DBE74FF08043EAE70024DB
:103B9000434D04E00024434D01E0434D00243D4EDD
:103BA000012056F8F07FB840FCF783FC02460B4634
:103BB00020462946FCF7F7FB02460B460020364913
:103BC000FCF7F1FB04460D46F088FCF783FC00226D
:103BD000364B00E05BE0FCF7CDFA22462B46FCF7C3
:103BE00070FB834600917079001DFCF773FC8046E2
:103BF0003079894600B10220381A8000FCF76AFC4F
:103C0000064602988A46C10022487A4201EB8201A8
:103C100090F8FA2090F8F80001EB021100B114209E
:103C2000081A1C30FCF756FC32465346FCF7BBFB27
:103C300002F05EFA42464B46FCF743FB0022074681
:103C40000E461346FCF7A4FC02D23846314601E08A
:103C5000002001460022164BFCF78CFA22462B4628
:103C6000FCF72FFB02460B4658460099FCF782FAF8
:103C700000220A4BFCF725FB0E4A0F4BFCF77AFAA1
:103C800002F0A4FA03B0BDE8F04FFCF74FBCBDE86A
:103C9000FE8F0000E40600200000F03F00408F404F
:103CA0008084FE4080840E4180841E4100001140CB
:103CB000000020402B8716D9CEF7EF3F70B5194989
:103CC00008601949194801F097FC18481649143042
:103CD00001F092FC15481449283001F08DFC00F0E9
:103CE000FBFAFFF7C3FD002000F012FC0D48001D99
:103CF00000F042F80E4D002404EB4406A85D00F0ED
:103D0000CBFB70198178407801F0D2F8641CE4B2E2
:103D1000102CF1D3002000F0BFFB0649002081F8F1
:103D2000AC0070BD540000200D410008F4070020D5
:103D300074790008E40600207CB501240094002377
:103D4000224604210B480194FCF7F2FE00250948A5
:103D50002B462A461B219438CDE90045FCF7E8FEA6
:103D6000044800231A461A218838CDE90045FCF79B
:103D7000DFFE7CBD8407002010B5044603680322E3
:103D800001210648FCF7ECFF044863680322012187
:103D9000BDE810400C30FCF7E3BF0000F006002047
:103DA00070B514460E46054600F076FB304600F02E
:103DB00037FB052000F0ACFB0120FCF745FE284650
:103DC00000F068FA054600F089FEA54201DD0020FA
:103DD00070BD012070BD0000F8B500258DF80050C1
:103DE0008E4C8F4E94F8AC0001280AD0022854D192
:103DF00004F5887001F0B4FC94F8AD0001287DD181
:103E0000FCE094F8AD00B8B1012846D14021122061
:103E100001F04EF8122000F00AFA8DF800009DF82B
:103E2000000080066BD52021122001F041F894F8A3
:103E3000FE0000287ED090E094F8CC00012834D118
:103E40003F2000F0F4F98DF800009DF80000800795
:103E50002BD40B213E2001F02BF810213F2001F044
:103E600027F8704801F07CFC94F8CE00B0B10D202A
:103E700000F0DDF940F040010D2001F019F869482B
:103E8000143001F03DFC306810B1006900B180478A
:103E900004F8D85F6570A5816581F8BD614814306C
:103EA00001F05EFC84F8AC50EDE7B4F8E2105E4F30
:103EB00011B9B4F8E40030B1B4F8E400091AC9B299
:103EC0003844E2340EE094F8CA00A0B3322000F087
:103ED000AEF9A4F8E20000BF14F8E21F6088091AE6
:103EE000C9B2384400F0D0F934F8020B24F8E409E0
:103EF0004C4801F035FC94F8CE0001E082E034E05B
:103F000010B30D2000F093F940F040010D2000F0B7
:103F1000CFFF4448143001F0F3FB30680028B7D0DD
:103F20008668002EB4D094F9DA20B4F8E2100023A9
:103F30003D4801E00FE001E0B047A9E73948012121
:103F4000423800F0A1F9C7E7364884F8AC50143085
:103F500001F006FCE1E784F8AC50324801F000FCC7
:103F60003068002899D0006952E0192000F05FF90C
:103F700040B284F80801010605D5C043401CC0F3D7
:103F80008500474201E0C0F385071A2000F04FF991
:103F90002649D4F8B020002F06DA00EB20108A4220
:103FA000384405D99D3804E08A4200EB2010F9D846
:103FB000A438A4F80A01132000F039F984F80C01A0
:103FC0000146194800F060F994F8FE0008B984F839
:103FD000AC50144801F0C4FB30680028C2D085689A
:103FE000002DBFD094F90831B4F90A2194F80C11CE
:103FF00001B0AC46BDE8F0400B48604708211220F4
:1040000000F056FF84F8AC5030680028AAD0006851
:104010000028A7D001B0BDE8F0400047E40600202A
:104020005400002008080020E405002040DD4A1F5D
:1040300070B5334C204694F8AC3090F8AD20B0F811
:10404000E210B0F8E400A4F58075012B15D0022B26
:1040500012D1002A10D10A1A234694F8E710B3F8B7
:10406000E430284618448A4243DD00F04BFF34F820
:10407000E40FE1780844208070BDAAB1012AFBD189
:10408000204801F06DFB8021122000F011FF00207C
:1040900084F8AC001C4800680028EDD0C0680028F7
:1040A000EAD0BDE87040004741B938B994F8CA0079
:1040B000A0B1322000F0BBF8A4F8E200B4F8E2109E
:1040C000B4F8E4000A1A94F8E6108A420CDD284499
:1040D00000F0DAF834F8E40FA178CBE709480121C1
:1040E000423800F0D1F8E9E7D1B2284400F0CCF82A
:1040F00002E0D1B200F006FF34F8E20F608070BD3C
:10410000E406002008080020540000202DE9F047B4
:10411000334CDFF8D0904FF0000894F8AC00012841
:104120002BD0022859D100F0D7F8FFF79FFB0020D1
:1041300000F0EEF92C4E002505EB4507F05D00F090
:10414000ABF9B8198178407800F0B2FE6D1CEDB281
:10415000102DF1D3002000F09FF994F8040100F035
:10416000EFF984F8AC80D9F80000002835D0406819
:10417000002832D0BDE8F047004794F8AD00D0B930
:1041800084F8D88084F8D980A4F8E480A4F8E28088
:1041900045460B213E20CE3400F08AFE10213F2000
:1041A00000F086FE14F8CE0901280AD084F8AC503D
:1041B0000E4801F0D5FAD9F8000000280DD0C068EB
:1041C000D6E70D2000F033F840F040010D2000F05C
:1041D0006FFE064801F094FAEDE7BDE8F0870000B5
:1041E000E406002054000020747900081C08002018
:1041F00070B50025012000F04FF9FF21112000F0DB
:1042000057FE052000F084F900240120FCF71CFC77
:104210002C2000F00CF800F00100A040641C0543C5
:10422000E4B2202CF1D300F059FC284670BD08B54B
:104230000122694600F004F89DF8000008BD000066
:104240002DE9F04104460F480E46154600218046F0
:10425000FCF788FD0B4804F07F017C38074600F02E
:104260004FFF002406E00021384600F049FF30559A
:10427000641CE4B2AC42F6D34046BDE8F0410121F3
:10428000FCF770BD840700200A4601460020FFF7B6
:10429000D7BF000010B520B1012808D04FF0FF3083
:1042A00010BD1120FFF7C3FF4008404210BD084871
:1042B0000849D0F8B00088424FF01B0003D9FFF73F
:1042C000B6FF9D3810BDFFF7B2FFA43810BD000047
:1042D000E406002040DD4A1F10B50120FFF7A7FFCC
:1042E00010F0800F07D0002000F0D6F80320FCF774
:1042F000ABFB012006E0012000F0CEF80320FCF724
:10430000A3FB002000F0C8F8BDE810400620FCF731
:104310009BBB000073B53B4C0546002094F8AD10E4
:1043200011B101296BD12DE00020A4F8E4009DF823
:104330000410A4F8E21094F8CA0058B1322000F03A
:10434000B7FD00BF9DF80420501E3F2807D884F811
:10435000E7200BE0012101A800F0D4FDF2E7294697
:10436000294802F001F8202084F8E70094F8E710CB
:104370002846D03400F0C6FDA08AE17D0844A08222
:1043800020683CE094F8FD0001284FF0330021D074
:10439000FFF74DFF00F0BE013320491C00F088FDFF
:1043A0001D213B2000F084FD9DF8041084F80C11C1
:1043B000222000F07DFD00210E2000F079FD00217B
:1043C0000D2000F075FD0120FFF731FF30F0F800FF
:1043D00009D00DE0FFF72BFF00F0BE01332000F005
:1043E00067FD1921DDE700F08DFB0120FCF72CFBB8
:1043F0009DF80410284600F085FDD4F8000100F077
:1044000095FB7CBDE4060020E40500207047000019
:1044100002490A78824200D0087070472C000020C0
:104420000E4910B5C1F8B000FCF754F800220C4B4F
:10443000FBF7B9FFFCF77AF80446C0F30741062002
:1044400000F036FDC4F30721072000F031FDE1B292
:10445000BDE81040082000F02BBD0000E40600205D
:1044600080844E4070B50D46044600F015F824B126
:10447000012C0DD12946232006E0064890F8CA00F9
:10448000002805D129463220BDE8704000F010BD5B
:1044900070BD0000E406002010B504460120FFF7BF
:1044A000C6FE1A49000601D5012000E0002081F86F
:1044B000AD00C0B2A04227D081F8AD40012C0FD092
:1044C00000F00CFB0120FFF7B2FE00F07F0101209D
:1044D00000F0EEFC0021402000F0EAFC30210EE06C
:1044E00000F0FCFA0120FFF7A2FE40F0800101205D
:1044F00000F0DEFC0021402000F0DAFC0021BDE8E5
:104500001040412000F0D4BC10BD0000E4060020A3
:1045100010B5040010D00020FFF77AFF2046FFF707
:1045200075FF0120FFF783FE00F0F8012143BDE88D
:104530001040012000F0BCBC0120FFF769FFF0E74C
:1045400010B504460120FFF7A7FF064880F8044194
:104550000CB1342100E01221BDE81040392000F0F8
:10456000A7BC0000E406002070B504460920FFF750
:104570005EFE06464D20FFF75AFE05462248D0F85B
:10458000B000FFF78FFA06F07F01084340F070009B
:1045900001062BD5112C02DD45F0070502E005F0E0
:1045A000F8052D1DE943490703D0022C0CDA02243B
:1045B0000DE0052C01DA052402E0142C00DD1424A2
:1045C00000F0F001641F05E0112C00DD112400F063
:1045D000F001A41E04F00F000143092000F068FC64
:1045E0002946BDE870404D2000F062BC4FF0FF311D
:1045F0008C4201DA0C4602E00E2C00DD0E2400F0A5
:10460000F001641CE6E70000E406002070B5854C6C
:104610000546002694F8AD0010B1012824D124E00D
:1046200014F8CE6F4020FFF702FE00F0030040F0C8
:104630000C01402000F03CFC4120FFF7F8FD40F069
:10464000C101412000F034FC3520FFF7F0FD00F0FF
:104650003F0020761E210D2000F02AFC0020A072D1
:10466000E072E082A082CE3C9EE094F8FD0001283A
:104670004FF0330027D0FFF7DAFD00F0BE01332002
:10468000491C00F015FC1D213B2000F011FCD4F862
:10469000EC0009284FF031007ED2FFF7C8FD00F092
:1046A0007F01312000F004FC0021302000F000FCEC
:1046B000D4F8EC0009285BD2DFE800F00E19242FB3
:1046C0003A4556565600FFF7B2FD40F041013320FF
:1046D00000F0EEFB1921D7E748212F2000F0E8FB7E
:1046E000D4F8B000FBF7F6FE00224F4B35E0442132
:1046F0002F2000F0DDFBD4F8B000FBF7EBFE00222A
:104700004A4B2AE044212F2000F0D2FBD4F8B0001D
:10471000FBF7E0FE0022464B1FE044212F2000F073
:10472000C7FBD4F8B000FBF7D5FE0022414B14E0E4
:1047300044212F2000F0BCFBD4F8B000FBF7CAFEE8
:1047400000223D4B09E044212F2000F0B1FBD4F8BA
:10475000B000FBF7BFFE0022384BFBF70BFDFBF769
:10476000E5FEFFF75DFE03E040212F2000F0A0FBF7
:1047700094F8FB0094F8FE60012831D01F2111202D
:1047800000F096FB4020FFF752FD00F03F01402073
:1047900000F08EFB002100E01CE00F2000F088FB01
:1047A00000210D2000F084FB4FF480712448FBF7BA
:1047B000D6FC012084F8AC0035B12946214800F030
:1047C00097FF204800F09CFF94F8AD0090B116B31D
:1047D000052021E0FFF72BFD40F080013120C5E7E7
:1047E0001D21112000F064FB4020FFF720FD00F0A8
:1047F0003301CCE70520FFF78BFE002E10D11148C6
:10480000D4F8D410143000F073FFBDE870400D48A8
:10481000143000F075BF0620BDE87040FFF778BE89
:1048200070BD0000E40600200082BE40005AC44073
:104830000082CE408057D4408084DE40C058E4409F
:10484000E4050020080800202DE9FC5F9B46144683
:104850008A468046DDF844900D9F0F9EFFF71CFEB0
:10486000380A994D0090B8F1000F06D0B8F1010F49
:1048700074D1BAF1020F73D9FEE745F8BCAFAC6052
:104880000C986860AE731098E87385F810901498CF
:1048900068741598A874AF812046FBF71BFE044688
:1048A0000B460191224600208849FBF77CFD03223C
:1048B000FBF7E8FD80468B460E98FBF70BFE424661
:1048C0005B46FBF7FEFC0022814BFBF7FAFCFBF793
:1048D0002DFEA861224600207E49019BFBF763FD67
:1048E000FBF724FE84B2210A022000F0E1FAE1B2D3
:1048F000032000F0DDFA5046FCF704F901461220CF
:1049000000F0D6FA0C98FCF7FDF80146132000F0F1
:10491000CFFA2520009900F0CBFAF9B2262000F05A
:10492000C7FA0EB1109900E0FF21322000F0C0FA62
:104930003020FFF77CFC00F06F000EB1002100E09A
:104940008021084340EA0911302000F0B1FA3120FB
:10495000FFF76DFC40F040013120A5E0B2E0FFE739
:1049600028460AF10708E0E93B840C2C80F809B0DE
:10497000478106731099417380F80E901299C173A4
:104980001399017414994174159985F8FE1001D991
:104990000C2402E0062C00D20624B8F1070F03D045
:1049A000B8F1080F02D003E00B2C47D00C2C45D0F7
:1049B0005FF0000185F8F4101D20FFF738FC4FEA86
:1049C000081141EA4B003043C1B21D2000F070FADB
:1049D0001E20FFF72CFC00F0080040EA041141EA19
:1049E00089000E99032202EA11210843C1B21E2058
:1049F00000F05EFA2620FFF71AFC00F0F70195F8A8
:104A0000F40041EAC000C1B2262000F051FA0E982D
:104A1000C1B21F2000F04CFA2020009900F048FAA3
:104A2000F9B2212000F044FA1EB12220109900F0C2
:104A30003FFA95F8FB00012802D00EE00121B9E70A
:104A40004420FFF7F4FB40F08001442000F030FAEE
:104A500095F8FC10242000F02BFAB8F1090F02D0D1
:104A60000321362010E01C49D5F8B00088424FF0F1
:104A700002014FF0360003D900F01AFA642102E077
:104A800000F016FA7F213A2000F012FA062C4FF0BF
:104A900031000DD0FFF7CBFB00F0F8013120C91C2D
:104AA00000F006FA0A213720BDE8FC5F00F000BAEA
:104AB000FFF7BDFB00F0F8013120491D00F0F8F9C7
:104AC0000C21F0E7BDE8FC9FE40600200000F03F69
:104AD00000408F4080847E4140DD4A1F10B507486A
:104AE00000F03EFE0548143800F03AFE0020FFF7C3
:104AF0000FFD0349002081F8AC0010BD080800201C
:104B0000E406002010B5074800F02AFE05481438D6
:104B100000F026FE0120FFF7FBFC0349002081F88E
:104B2000AC0010BD08080020E406002010B50146C6
:104B3000254800F0DDFD254C94F8AD0010B10128AA
:104B40002DD119E04020FFF772FB00F0030040F088
:104B50001001402000F0ACF94120FFF768FB00F0A5
:104B60003E01412000F0A4F93520FFF760FB00F082
:104B70003F0084F8E60012E094F8FB00012819D009
:104B8000F721112000F094F94020FFF750FB00F0CE
:104B90003F0000BF40F04001402000F089F90220B2
:104BA00084F8AC00084800F0ABFDBDE810400320DD
:104BB000FFF7AEBCF521112000F07AF94020FFF795
:104BC00036FB00F03300E5E7F4070020E4060020A0
:104BD0002DE9FF4F81B01D46DDE90E4BDDE9106880
:104BE0008946DDF854A0129F0198FFF755FC48460E
:104BF000FFF7BAFC7548320A0199009231B10129D8
:104C000072D180F8E890022D54D9FEE700F8B49FE5
:104C100003990461C0E90115868280F81680077641
:104C200080F819A01699C1610398FBF753FC002284
:104C3000674BFBF7B8FBFBF779FC85B2290A042028
:104C400000F036F9E9B2052000F032F92046FBF712
:104C500041FC02460B4600205E49FBF7A4FBFBF734
:104C600065FC84B2210A022000F022F9E1B203209F
:104C700000F01EF92520009900F01AF9F1B2262063
:104C800000F016F93020FFF7D2FA00F06F00B8F10B
:104C9000000F01D0002100E08021084340EA071105
:104CA000302000F005F93120FFF7C1FA40F0400153
:104CB000312078E0ED1DC0E93B5480F8F5B0A0F854
:104CC000F66080F8F880139980F8FB10149A80F849
:104CD000FC2080F8FA7080F8FDA0169AC0F8002138
:104CE0000C2C02D90C2403E06CE0062C00D2062424
:104CF000072D02D0082D02D003E00B2C08D00C2C7D
:104D000006D0002280F8F4208146012902D00EE06E
:104D10000122F7E74420FFF78AFA40F0800144209F
:104D200000F0C6F899F8FC10242000F0C1F81D200E
:104D3000FFF77DFA290141EA4B0040EA0800C1B2C1
:104D40001D2000F0B5F81E20FFF771FA00F00B00EF
:104D500040EA041040EA8700C1B21E2000F0A8F823
:104D60002620FFF764FA00F0F70199F8F40041EA11
:104D7000C000C1B2262000F09BF82020009900F06E
:104D800097F8F1B2212000F093F8062C4FF0310093
:104D90000ED0FFF74CFA00F0F8013120C91C00F0EA
:104DA00087F80A21372005B0BDE8F04F00F080B841
:104DB000FFF73DFA00F0F8013120491D00F078F8C6
:104DC0000C21EFE705B0BDE8F08F0000E4060020FD
:104DD00080844E4080847E4170B506468AB00D4680
:104DE0001046FBF777FB00221E4BFBF76AFAFBF736
:104DF0009DFB04463046FFF713FB0020059006900C
:104E0000CDE907040521CDE90101039004904FF499
:104E10009650002300901A4629461846FFF7D8FE00
:104E20003120FFF704FA00F0BF01312000F040F814
:104E3000F021402000F03CF8A021412000F038F89B
:104E40002146094800F054FC0849022081F8AC00D2
:104E5000054800F055FC0AB00320BDE87040FFF79C
:104E600057BB000000408F40F4070020E4060020FC
:104E700010B50E4C94F8AD00002815D0012813D1C0
:104E8000FA21112000F014F84020FFF7D0F900F0CB
:104E9000FC01402000F00CF8032084F8AC00BDE8D1
:104EA00010400720FFF734BB10BD0000E4060020CF
:104EB00013B5012201A900F001F81CBD2DE9F04154
:104EC00004460F480E46154600218046FBF74AFF70
:104ED0000B4844F080017C38074600F011F90024AB
:104EE00005E0315D384600F00BF9641CE4B2AC42D9
:104EF000F7D34046BDE8F0410121FBF733BF000086
:104F0000840700200A4601460020FFF7D7BF0000B3
:104F10000648E121017006490978012900D00221E3
:104F2000417004480221826A00481047880000202E
:104F3000000000200466000810B586B00446142165
:104F40006846FBF70CF980200090012C01D011205D
:104F500000E00020019001200290022003906946A9
:104F60000248FCF795F806B010BD000000040240AE
:104F7000002208E0002100BF00BF00BF00BF491CA5
:104F80000829F8D3521C8242F4D3704710B586B07A
:104F900014216846FBF7E3F80E48016841F002016E
:104FA000016000680C4C00F0020005900122C02155
:104FB0002046FCF738F9C020009011200190012014
:104FC00002900220039069462046FCF761F806B083
:104FD00010BD00001C38024000040240012804D02B
:104FE00003A206212020FEF71BB802A2F9E7000069
:104FF0004F6666004F6E200010B52648264C27A24B
:105000004178217181786171C078A07100211020F0
:10501000FEF706F821A202211020FEF701F81FA2D8
:1050200004211020FDF7FCFF1A4814212838FBF753
:1050300096F8184822791AA1283800F085FF154AF9
:105040000021283A1020FDF7EBFF124814212838E0
:10505000FBF785F80F48627911A1283800F074FF3A
:105060000C4A0221283A1020FDF7DAFF09481421E2
:105070002838FBF774F80748A27909A1283800F00E
:1050800063FF044A0421283ABDE810401020FDF7D0
:10509000C7BF00009C000020080000202020200046
:1050A0002564000030B50024039D846061B14FF495
:1050B0000061C160046207214462C0E90A41C0E99D
:1050C00004231DB1446030BDC460F3E74FF4827126
:1050D000416030BD094B00221B6803E05B08521C95
:1050E000072A01D28B42F9D8302101EAC201D20746
:1050F00000D008221143C161704700004800002021
:1051000070B5044600680D46016841F04001016039
:10511000FBF7D8FB20688168C9438907FBD4E9B253
:10512000C16020688168C943C907FBD1C068C4B2A7
:10513000FBF7D0FB204670BD2DE9FF4F83B08B46B7
:105140000446109FFBF7BEFB0525022604F158001C
:1051500004F1640904F1700804F17C0ABBF1070F43
:1051600003D0BBF11F0F2ED021E033490A6842F46F
:1051700080520A600A6822F480520A602E490C317B
:105180000A6842F480520A60096801F48051009173
:105190002A492DE04FF40070A0610020009000E04B
:1051A000009600231A4619462046FFF77BFF244944
:1051B0002046FFF78FFF2046FDF7E7F907B0BDE86F
:1051C000F04FFBF787BB1C49091D0A6842F4804277
:1051D0000A600A6822F480420A60174910310A689E
:1051E00042F480420A60096801F480410091154947
:1051F0002160CDE90065002302225946FBF798FCA7
:10520000CDE900650023022248460599FBF790FC92
:10521000CDE900650023022240460699FBF788FC91
:105220000126CDE900650023022239465046FBF7EE
:105230007FFC7F1CB4D1ADE7143802400030014040
:10524000809698000038004010B5FCF727F8BDE8BC
:105250001040FDF7F9B9000030B5244895B0016859
:1052600041F080510160006800F0805014902048A7
:10527000016821F4C05141F400610160012405205E
:10528000CDE900040220C5030294CDE909054FF4DD
:1052900040200B90A0050C906846FCF787FA0F2081
:1052A0000D9003200E9000200F901090119001217E
:1052B0000DA8FCF715F912A8CDE91245FCF75CF82A
:1052C000FCF7F8F94FF47A71B0FBF1F0FDF7A8F9AB
:1052D0000420FDF798F90320FCF734F8002211466A
:1052E000501EFCF70FF815B030BD00002438024006
:1052F0000070004038B52E48016841F080510160CF
:10530000006800F0805000902A48016821F4C051E4
:1053100041F40061016026492439086840F4803076
:105320000860234C4FF400321034012092FAA2F3AB
:10533000B3FA83F343F020035B0901D00B6800E06C
:10534000236892FAA2F5B5FA85F505F01F0500FA73
:1053500005F52B42EAD04FF0807292FAA2F2164B7A
:10536000B2FA82F243F822004FF0007393FAA3F2EC
:10537000B2FA82F242F02002520901D00A6800E03B
:10538000226893FAA3F5B5FA85F505F01F0500FA32
:1053900005F52A42EAD006481C38016841F00301AD
:1053A00001600168C1F381010329FAD138BD000011
:1053B0002438024000700040000047420F48016856
:1053C00041F4807101600D4908310A680C4B1A40A4
:1053D0000A6002680B4B1A400260026822F48022C5
:1053E0000260086820F47D0008600020091D086044
:1053F00005494FF000600860704700000038024027
:105400000CC0FF88FEFFFEEE08ED00E00148FDF74E
:105410008CB90000380300200148FDF786B9000070
:10542000700300200148FDF780B90000A8030020A8
:1054300070B502684FF08046134B144CB04203D055
:10544000984201D0A04205D122F070054A682A4353
:10545000B0420CD098420AD0A04208D00C4B9842DF
:1054600005D00C4B984202D00B4B984203D122F44A
:105470004073CA681A4302608A68C262096881621E
:105480000121416170BD000000040040000800409F
:1054900000080140000C014000100140134910B504
:1054A00009684FF47A42B1FBF2F211494FF08043A0
:1054B000521E0B604FF0FF3303EB8010C8600020DA
:1054C0000861C1E901200846FDF7C2F810B109A042
:1054D00000F02AFD0648FDF71BF9002804D0BDE8BE
:1054E00010400CA000F020BD10BD000048000020BE
:1054F00038030020E5AE9AE697B6E599A832E5882C
:105500009DE5A78BE58C96E5A4B1E8B4A5EFBC8139
:105510000D0A0000E5AE9AE697B6E599A832E59047
:10552000AFE58AA8E4B8ADE696ADE5A4B1E8B4A5C8
:10553000EFBC815C720A0000124910B509684FF493
:105540007A42B1FBF2F211490F4B521E0B604FF041
:10555000FF3303EB0010C86000200861C1E901209F
:105560000846FDF775F810B109A000F0DDFC07480A
:10557000FDF7CEF8002804D0BDE810400CA000F0E4
:10558000D3BC10BD48000020000400407003002080
:10559000E5AE9AE697B6E599A833E5889DE5A78B31
:1055A000E58C96E5A4B1E8B4A5EFBC810D0A000036
:1055B000E5AE9AE697B6E599A833E590AFE58AA8F7
:1055C000E4B8ADE696ADE5A4B1E8B4A5EFBC815C66
:1055D000720A0000FFF79CBC05494868401C4860FF
:1055E00041F28831884202D9002000F091BC704716
:1055F00000000020FFF7F0BF00220260426002724C
:10560000C0E9031270470000074B30B45A6822B15A
:105610000468091B116000211172012102610172ED
:10562000586030BC00F054B86800002070B5124AD1
:10563000002553681A6912B114680C4414E002681A
:10564000511A15E00668A64208D2711A016012B11B
:105650001468611A11601861026170BD1346126905
:105660002AB1166821467418002BEBD170BD311B8E
:1056700001601861056170BD6800002010B5134C11
:105680006068002820D0FEF72BF8616800220B68C4
:10569000834201D80A6001E0181A08600A7204E027
:1056A00001696160C06800B18047606800280BD064
:1056B00001680029F4D0017A012905D00121017285
:1056C000BDE8104000F004B810BD000068000020E4
:1056D00010B506490446002008702068FDF7BCFF9D
:1056E0002060BDE81040FEF775B80000680000209B
:1056F00070B50D46044600F033F82560656070BD56
:1057000070B50446FBF7DEF81CB3144D686802461A
:1057100002E0A0421DD000690028FAD16168216032
:10572000207232B1107A012807D0116820688842AF
:105730000CD22046FFF768FF0BE0FDF7D1FF696848
:105740000968814200D20846091AEFE72046FFF7B0
:105750006DFFBDE87040FBF7BDB800006800002099
:1057600070B50546FBF7AEF81F4C6068011E36D0D9
:1057700005B3A84221D1017A0026012907D000698A
:10578000C8B12968606002681144016027E0FDF734
:10579000A7FF2968814200D208466268091A106989
:1057A00048B1167260600268114401600121017203
:1057B000FFF78EFF13E0666011E02A680DE0A94252
:1057C00009D1096921B1016108681044086006E047
:1057D0000021016103E0084609690029EFD1BDE815
:1057E0007040FBF777B80000680000202DE9F04119
:1057F000044600680169E26821F4405111430161E7
:105800002169A068E269084361691143084321687E
:10581000CA6849F20C639A430243CA60206841692E
:10582000A26921F4407111434161E1696425B1F538
:10583000004F954821684FF032083DD081427AD11F
:10584000FBF756FF00EBC00101EB00106168890017
:10585000B0FBF1F6FBF74CFF00EBC00101EB0010D1
:1058600061688900B0FBF1F0B0FBF5F06FF0180152
:10587000484306EB800108EB0110B0FBF5F000F0A7
:10588000F006FBF735FF00EBC00101EB001061688B
:105890008900B0FBF1F0B0FBF5F006EB0016FBF76A
:1058A00027FF00EBC00101EB001061688900B0FB2D
:1058B000F1F7FBF71DFFD0E081423DD1FBF718FF68
:1058C00000EBC00101EB001061684900B0FBF1F092
:1058D000B0FBF5F00601FBF70BFF00EBC00101EB9D
:1058E000001061684900B0FBF1F7FBF701FF00EB26
:1058F000C00101EB001061684900B0FBF1F0B0FBA2
:10590000F5F06FF01801484307EB800108EBC10088
:10591000B0FBF5F000F0F80006EB4006FBF7E8FE00
:1059200000EBC00101EB001061684900B0FBF1F72A
:10593000FBF7DEFE3CE055E0FBF7C2FE00EBC001EA
:1059400001EB001061684900B0FBF1F0B0FBF5F02D
:105950000601FBF7B5FE00EBC00101EB001061682A
:105960004900B0FBF1F7FBF7ABFE00EBC00101EB28
:10597000001061684900B0FBF1F0B0FBF5F06FF08A
:105980001801484307EB800108EBC100B0FBF5F0BC
:1059900000F0F80006EB4006FBF792FE00EBC001BA
:1059A00001EB001061684900B0FBF1F7FBF788FEDE
:1059B00000EBC00101EB001061684900B0FBF1F0A1
:1059C000B0FBF5F06FF01801484307EB800108EBDE
:1059D000C100B0FBF5F000F007002168304488609A
:1059E000BDE8F081FBF76CFE00EBC00101EB00109D
:1059F00061688900B0FBF1F6FBF762FE00EBC001C5
:105A000001EB001061688900B0FBF1F0B0FBF5F02C
:105A10006FF01801484306EB800108EB0110B0FB62
:105A2000F5F000F0F006FBF74BFE00EBC00101EBD8
:105A3000001061688900B0FBF1F0B0FBF5F006EBF7
:105A40000016FBF73DFE00EBC00101EB00106168A2
:105A50008900B0FBF1F7FBF733FE00EBC00101EB6F
:105A6000001061688900B0FBF1F0B0FBF5F06FF059
:105A70001801484307EB800108EB0110B0FBF5F07B
:105A800000F00F00A9E7000000380140034A01467A
:105A9000002012680A4200D00120704700380140FF
:105AA00000B52020FFF7F2FF00280FD000F038F8F3
:105AB0000849074B8A889854521C92B200208A8069
:105AC000012388704B70FF2A00D3888000BD00003E
:105AD000A0040020400000203EB504460A2309220D
